{
	"contracts/store2.sol": {
		"storefavnumber": {
			"abi": [
				{
					"inputs": [],
					"name": "favouritenumber",
					"outputs": [
						{
							"internalType": "uint256",
							"name": "",
							"type": "uint256"
						}
					],
					"stateMutability": "view",
					"type": "function"
				},
				{
					"inputs": [],
					"name": "person",
					"outputs": [
						{
							"internalType": "uint256",
							"name": "favouritenumber",
							"type": "uint256"
						},
						{
							"internalType": "string",
							"name": "name",
							"type": "string"
						}
					],
					"stateMutability": "view",
					"type": "function"
				},
				{
					"inputs": [],
					"name": "person2",
					"outputs": [
						{
							"internalType": "uint256",
							"name": "favouritenumber",
							"type": "uint256"
						},
						{
							"internalType": "string",
							"name": "name",
							"type": "string"
						}
					],
					"stateMutability": "view",
					"type": "function"
				},
				{
					"inputs": [],
					"name": "person3",
					"outputs": [
						{
							"internalType": "uint256",
							"name": "favouritenumber",
							"type": "uint256"
						},
						{
							"internalType": "string",
							"name": "name",
							"type": "string"
						}
					],
					"stateMutability": "view",
					"type": "function"
				},
				{
					"inputs": [],
					"name": "person4",
					"outputs": [
						{
							"internalType": "uint256",
							"name": "favouritenumber",
							"type": "uint256"
						},
						{
							"internalType": "string",
							"name": "name",
							"type": "string"
						}
					],
					"stateMutability": "view",
					"type": "function"
				},
				{
					"inputs": [
						{
							"internalType": "uint256",
							"name": "_favouritenumber",
							"type": "uint256"
						}
					],
					"name": "store",
					"outputs": [],
					"stateMutability": "nonpayable",
					"type": "function"
				}
			],
			"devdoc": {
				"kind": "dev",
				"methods": {},
				"version": 1
			},
			"evm": {
				"assembly": "    /* \"contracts/store2.sol\":149:691  contract storefavnumber {... */\n  mstore(0x40, 0x80)\n    /* \"contracts/store2.sol\":235:278  People({favouritenumber: 2,name: \"akshat\"}) */\n  mload(0x40)\n  dup1\n  0x40\n  add\n  0x40\n  mstore\n  dup1\n    /* \"contracts/store2.sol\":260:261  2 */\n  0x02\n    /* \"contracts/store2.sol\":235:278  People({favouritenumber: 2,name: \"akshat\"}) */\n  dup2\n  mstore\n  0x20\n  add\n  mload(0x40)\n  dup1\n  0x40\n  add\n  0x40\n  mstore\n  dup1\n  0x06\n  dup2\n  mstore\n  0x20\n  add\n  0x616b736861740000000000000000000000000000000000000000000000000000\n  dup2\n  mstore\n  pop\n  dup2\n  mstore\n  pop\n    /* \"contracts/store2.sol\":212:278  People public person = People({favouritenumber: 2,name: \"akshat\"}) */\n  0x01\n  0x00\n  dup3\n  add\n  mload\n  dup2\n  0x00\n  add\n  sstore\n  0x20\n  dup3\n  add\n  mload\n  dup2\n  0x01\n  add\n  swap1\n  dup2\n  tag_1\n  swap2\n  swap1\n  tag_2\n  jump\t// in\ntag_1:\n  pop\n  pop\n  pop\n    /* \"contracts/store2.sol\":308:352  People({favouritenumber: 8,name: \"patrick\"}) */\n  mload(0x40)\n  dup1\n  0x40\n  add\n  0x40\n  mstore\n  dup1\n    /* \"contracts/store2.sol\":333:334  8 */\n  0x08\n    /* \"contracts/store2.sol\":308:352  People({favouritenumber: 8,name: \"patrick\"}) */\n  dup2\n  mstore\n  0x20\n  add\n  mload(0x40)\n  dup1\n  0x40\n  add\n  0x40\n  mstore\n  dup1\n  0x07\n  dup2\n  mstore\n  0x20\n  add\n  0x7061747269636b00000000000000000000000000000000000000000000000000\n  dup2\n  mstore\n  pop\n  dup2\n  mstore\n  pop\n    /* \"contracts/store2.sol\":284:352  People public person2 = People({favouritenumber: 8,name: \"patrick\"}) */\n  0x03\n  0x00\n  dup3\n  add\n  mload\n  dup2\n  0x00\n  add\n  sstore\n  0x20\n  dup3\n  add\n  mload\n  dup2\n  0x01\n  add\n  swap1\n  dup2\n  tag_3\n  swap2\n  swap1\n  tag_2\n  jump\t// in\ntag_3:\n  pop\n  pop\n  pop\n    /* \"contracts/store2.sol\":382:424  People({favouritenumber: 45,name: \"ally\"}) */\n  mload(0x40)\n  dup1\n  0x40\n  add\n  0x40\n  mstore\n  dup1\n    /* \"contracts/store2.sol\":407:409  45 */\n  0x2d\n    /* \"contracts/store2.sol\":382:424  People({favouritenumber: 45,name: \"ally\"}) */\n  dup2\n  mstore\n  0x20\n  add\n  mload(0x40)\n  dup1\n  0x40\n  add\n  0x40\n  mstore\n  dup1\n  0x04\n  dup2\n  mstore\n  0x20\n  add\n  0x616c6c7900000000000000000000000000000000000000000000000000000000\n  dup2\n  mstore\n  pop\n  dup2\n  mstore\n  pop\n    /* \"contracts/store2.sol\":358:424  People public person3 = People({favouritenumber: 45,name: \"ally\"}) */\n  0x05\n  0x00\n  dup3\n  add\n  mload\n  dup2\n  0x00\n  add\n  sstore\n  0x20\n  dup3\n  add\n  mload\n  dup2\n  0x01\n  add\n  swap1\n  dup2\n  tag_4\n  swap2\n  swap1\n  tag_2\n  jump\t// in\ntag_4:\n  pop\n  pop\n  pop\n    /* \"contracts/store2.sol\":454:494  People({favouritenumber: 9,name: \"bob\"}) */\n  mload(0x40)\n  dup1\n  0x40\n  add\n  0x40\n  mstore\n  dup1\n    /* \"contracts/store2.sol\":479:480  9 */\n  0x09\n    /* \"contracts/store2.sol\":454:494  People({favouritenumber: 9,name: \"bob\"}) */\n  dup2\n  mstore\n  0x20\n  add\n  mload(0x40)\n  dup1\n  0x40\n  add\n  0x40\n  mstore\n  dup1\n  0x03\n  dup2\n  mstore\n  0x20\n  add\n  0x626f620000000000000000000000000000000000000000000000000000000000\n  dup2\n  mstore\n  pop\n  dup2\n  mstore\n  pop\n    /* \"contracts/store2.sol\":430:494  People public person4 = People({favouritenumber: 9,name: \"bob\"}) */\n  0x07\n  0x00\n  dup3\n  add\n  mload\n  dup2\n  0x00\n  add\n  sstore\n  0x20\n  dup3\n  add\n  mload\n  dup2\n  0x01\n  add\n  swap1\n  dup2\n  tag_5\n  swap2\n  swap1\n  tag_2\n  jump\t// in\ntag_5:\n  pop\n  pop\n  pop\n    /* \"contracts/store2.sol\":149:691  contract storefavnumber {... */\n  callvalue\n  dup1\n  iszero\n  tag_6\n  jumpi\n  revert(0x00, 0x00)\ntag_6:\n  pop\n  jump(tag_7)\n    /* \"#utility.yul\":7:106   */\ntag_8:\n    /* \"#utility.yul\":59:65   */\n  0x00\n    /* \"#utility.yul\":93:98   */\n  dup2\n    /* \"#utility.yul\":87:99   */\n  mload\n    /* \"#utility.yul\":77:99   */\n  swap1\n  pop\n    /* \"#utility.yul\":7:106   */\n  swap2\n  swap1\n  pop\n  jump\t// out\n    /* \"#utility.yul\":112:292   */\ntag_9:\n    /* \"#utility.yul\":160:237   */\n  0x4e487b7100000000000000000000000000000000000000000000000000000000\n    /* \"#utility.yul\":157:158   */\n  0x00\n    /* \"#utility.yul\":150:238   */\n  mstore\n    /* \"#utility.yul\":257:261   */\n  0x41\n    /* \"#utility.yul\":254:255   */\n  0x04\n    /* \"#utility.yul\":247:262   */\n  mstore\n    /* \"#utility.yul\":281:285   */\n  0x24\n    /* \"#utility.yul\":278:279   */\n  0x00\n    /* \"#utility.yul\":271:286   */\n  revert\n    /* \"#utility.yul\":298:478   */\ntag_10:\n    /* \"#utility.yul\":346:423   */\n  0x4e487b7100000000000000000000000000000000000000000000000000000000\n    /* \"#utility.yul\":343:344   */\n  0x00\n    /* \"#utility.yul\":336:424   */\n  mstore\n    /* \"#utility.yul\":443:447   */\n  0x22\n    /* \"#utility.yul\":440:441   */\n  0x04\n    /* \"#utility.yul\":433:448   */\n  mstore\n    /* \"#utility.yul\":467:471   */\n  0x24\n    /* \"#utility.yul\":464:465   */\n  0x00\n    /* \"#utility.yul\":457:472   */\n  revert\n    /* \"#utility.yul\":484:804   */\ntag_11:\n    /* \"#utility.yul\":528:534   */\n  0x00\n    /* \"#utility.yul\":565:566   */\n  0x02\n    /* \"#utility.yul\":559:563   */\n  dup3\n    /* \"#utility.yul\":555:567   */\n  div\n    /* \"#utility.yul\":545:567   */\n  swap1\n  pop\n    /* \"#utility.yul\":612:613   */\n  0x01\n    /* \"#utility.yul\":606:610   */\n  dup3\n    /* \"#utility.yul\":602:614   */\n  and\n    /* \"#utility.yul\":633:651   */\n  dup1\n    /* \"#utility.yul\":623:704   */\n  tag_33\n  jumpi\n    /* \"#utility.yul\":689:693   */\n  0x7f\n    /* \"#utility.yul\":681:687   */\n  dup3\n    /* \"#utility.yul\":677:694   */\n  and\n    /* \"#utility.yul\":667:694   */\n  swap2\n  pop\n    /* \"#utility.yul\":623:704   */\ntag_33:\n    /* \"#utility.yul\":751:753   */\n  0x20\n    /* \"#utility.yul\":743:749   */\n  dup3\n    /* \"#utility.yul\":740:754   */\n  lt\n    /* \"#utility.yul\":720:738   */\n  dup2\n    /* \"#utility.yul\":717:755   */\n  sub\n    /* \"#utility.yul\":714:798   */\n  tag_34\n  jumpi\n    /* \"#utility.yul\":770:788   */\n  tag_35\n  tag_10\n  jump\t// in\ntag_35:\n    /* \"#utility.yul\":714:798   */\ntag_34:\n    /* \"#utility.yul\":535:804   */\n  pop\n    /* \"#utility.yul\":484:804   */\n  swap2\n  swap1\n  pop\n  jump\t// out\n    /* \"#utility.yul\":810:951   */\ntag_12:\n    /* \"#utility.yul\":859:863   */\n  0x00\n    /* \"#utility.yul\":882:885   */\n  dup2\n    /* \"#utility.yul\":874:885   */\n  swap1\n  pop\n    /* \"#utility.yul\":905:908   */\n  dup2\n    /* \"#utility.yul\":902:903   */\n  0x00\n    /* \"#utility.yul\":895:909   */\n  mstore\n    /* \"#utility.yul\":939:943   */\n  0x20\n    /* \"#utility.yul\":936:937   */\n  0x00\n    /* \"#utility.yul\":926:944   */\n  keccak256\n    /* \"#utility.yul\":918:944   */\n  swap1\n  pop\n    /* \"#utility.yul\":810:951   */\n  swap2\n  swap1\n  pop\n  jump\t// out\n    /* \"#utility.yul\":957:1050   */\ntag_13:\n    /* \"#utility.yul\":994:1000   */\n  0x00\n    /* \"#utility.yul\":1041:1043   */\n  0x20\n    /* \"#utility.yul\":1036:1038   */\n  0x1f\n    /* \"#utility.yul\":1029:1034   */\n  dup4\n    /* \"#utility.yul\":1025:1039   */\n  add\n    /* \"#utility.yul\":1021:1044   */\n  div\n    /* \"#utility.yul\":1011:1044   */\n  swap1\n  pop\n    /* \"#utility.yul\":957:1050   */\n  swap2\n  swap1\n  pop\n  jump\t// out\n    /* \"#utility.yul\":1056:1163   */\ntag_14:\n    /* \"#utility.yul\":1100:1108   */\n  0x00\n    /* \"#utility.yul\":1150:1155   */\n  dup3\n    /* \"#utility.yul\":1144:1148   */\n  dup3\n    /* \"#utility.yul\":1140:1156   */\n  shl\n    /* \"#utility.yul\":1119:1156   */\n  swap1\n  pop\n    /* \"#utility.yul\":1056:1163   */\n  swap3\n  swap2\n  pop\n  pop\n  jump\t// out\n    /* \"#utility.yul\":1169:1562   */\ntag_15:\n    /* \"#utility.yul\":1238:1244   */\n  0x00\n    /* \"#utility.yul\":1288:1289   */\n  0x08\n    /* \"#utility.yul\":1276:1286   */\n  dup4\n    /* \"#utility.yul\":1272:1290   */\n  mul\n    /* \"#utility.yul\":1311:1408   */\n  tag_40\n    /* \"#utility.yul\":1341:1407   */\n  0xffffffffffffffffffffffffffffffffffffffffffffffffffffffffffffffff\n    /* \"#utility.yul\":1330:1339   */\n  dup3\n    /* \"#utility.yul\":1311:1408   */\n  tag_14\n  jump\t// in\ntag_40:\n    /* \"#utility.yul\":1429:1468   */\n  tag_41\n    /* \"#utility.yul\":1459:1467   */\n  dup7\n    /* \"#utility.yul\":1448:1457   */\n  dup4\n    /* \"#utility.yul\":1429:1468   */\n  tag_14\n  jump\t// in\ntag_41:\n    /* \"#utility.yul\":1417:1468   */\n  swap6\n  pop\n    /* \"#utility.yul\":1501:1505   */\n  dup1\n    /* \"#utility.yul\":1497:1506   */\n  not\n    /* \"#utility.yul\":1490:1495   */\n  dup5\n    /* \"#utility.yul\":1486:1507   */\n  and\n    /* \"#utility.yul\":1477:1507   */\n  swap4\n  pop\n    /* \"#utility.yul\":1550:1554   */\n  dup1\n    /* \"#utility.yul\":1540:1548   */\n  dup7\n    /* \"#utility.yul\":1536:1555   */\n  and\n    /* \"#utility.yul\":1529:1534   */\n  dup5\n    /* \"#utility.yul\":1526:1556   */\n  or\n    /* \"#utility.yul\":1516:1556   */\n  swap3\n  pop\n    /* \"#utility.yul\":1245:1562   */\n  pop\n  pop\n    /* \"#utility.yul\":1169:1562   */\n  swap4\n  swap3\n  pop\n  pop\n  pop\n  jump\t// out\n    /* \"#utility.yul\":1568:1645   */\ntag_16:\n    /* \"#utility.yul\":1605:1612   */\n  0x00\n    /* \"#utility.yul\":1634:1639   */\n  dup2\n    /* \"#utility.yul\":1623:1639   */\n  swap1\n  pop\n    /* \"#utility.yul\":1568:1645   */\n  swap2\n  swap1\n  pop\n  jump\t// out\n    /* \"#utility.yul\":1651:1711   */\ntag_17:\n    /* \"#utility.yul\":1679:1682   */\n  0x00\n    /* \"#utility.yul\":1700:1705   */\n  dup2\n    /* \"#utility.yul\":1693:1705   */\n  swap1\n  pop\n    /* \"#utility.yul\":1651:1711   */\n  swap2\n  swap1\n  pop\n  jump\t// out\n    /* \"#utility.yul\":1717:1859   */\ntag_18:\n    /* \"#utility.yul\":1767:1776   */\n  0x00\n    /* \"#utility.yul\":1800:1853   */\n  tag_45\n    /* \"#utility.yul\":1818:1852   */\n  tag_46\n    /* \"#utility.yul\":1827:1851   */\n  tag_47\n    /* \"#utility.yul\":1845:1850   */\n  dup5\n    /* \"#utility.yul\":1827:1851   */\n  tag_16\n  jump\t// in\ntag_47:\n    /* \"#utility.yul\":1818:1852   */\n  tag_17\n  jump\t// in\ntag_46:\n    /* \"#utility.yul\":1800:1853   */\n  tag_16\n  jump\t// in\ntag_45:\n    /* \"#utility.yul\":1787:1853   */\n  swap1\n  pop\n    /* \"#utility.yul\":1717:1859   */\n  swap2\n  swap1\n  pop\n  jump\t// out\n    /* \"#utility.yul\":1865:1940   */\ntag_19:\n    /* \"#utility.yul\":1908:1911   */\n  0x00\n    /* \"#utility.yul\":1929:1934   */\n  dup2\n    /* \"#utility.yul\":1922:1934   */\n  swap1\n  pop\n    /* \"#utility.yul\":1865:1940   */\n  swap2\n  swap1\n  pop\n  jump\t// out\n    /* \"#utility.yul\":1946:2215   */\ntag_20:\n    /* \"#utility.yul\":2056:2095   */\n  tag_50\n    /* \"#utility.yul\":2087:2094   */\n  dup4\n    /* \"#utility.yul\":2056:2095   */\n  tag_18\n  jump\t// in\ntag_50:\n    /* \"#utility.yul\":2117:2208   */\n  tag_51\n    /* \"#utility.yul\":2166:2207   */\n  tag_52\n    /* \"#utility.yul\":2190:2206   */\n  dup3\n    /* \"#utility.yul\":2166:2207   */\n  tag_19\n  jump\t// in\ntag_52:\n    /* \"#utility.yul\":2158:2164   */\n  dup5\n    /* \"#utility.yul\":2151:2155   */\n  dup5\n    /* \"#utility.yul\":2145:2156   */\n  sload\n    /* \"#utility.yul\":2117:2208   */\n  tag_15\n  jump\t// in\ntag_51:\n    /* \"#utility.yul\":2111:2115   */\n  dup3\n    /* \"#utility.yul\":2104:2209   */\n  sstore\n    /* \"#utility.yul\":2022:2215   */\n  pop\n    /* \"#utility.yul\":1946:2215   */\n  pop\n  pop\n  pop\n  jump\t// out\n    /* \"#utility.yul\":2221:2294   */\ntag_21:\n    /* \"#utility.yul\":2266:2269   */\n  0x00\n    /* \"#utility.yul\":2287:2288   */\n  0x00\n    /* \"#utility.yul\":2280:2288   */\n  swap1\n  pop\n    /* \"#utility.yul\":2221:2294   */\n  swap1\n  jump\t// out\n    /* \"#utility.yul\":2300:2489   */\ntag_22:\n    /* \"#utility.yul\":2377:2409   */\n  tag_55\n  tag_21\n  jump\t// in\ntag_55:\n    /* \"#utility.yul\":2418:2483   */\n  tag_56\n    /* \"#utility.yul\":2476:2482   */\n  dup2\n    /* \"#utility.yul\":2468:2474   */\n  dup5\n    /* \"#utility.yul\":2462:2466   */\n  dup5\n    /* \"#utility.yul\":2418:2483   */\n  tag_20\n  jump\t// in\ntag_56:\n    /* \"#utility.yul\":2353:2489   */\n  pop\n    /* \"#utility.yul\":2300:2489   */\n  pop\n  pop\n  jump\t// out\n    /* \"#utility.yul\":2495:2681   */\ntag_23:\n    /* \"#utility.yul\":2555:2675   */\ntag_58:\n    /* \"#utility.yul\":2572:2575   */\n  dup2\n    /* \"#utility.yul\":2565:2570   */\n  dup2\n    /* \"#utility.yul\":2562:2576   */\n  lt\n    /* \"#utility.yul\":2555:2675   */\n  iszero\n  tag_60\n  jumpi\n    /* \"#utility.yul\":2626:2665   */\n  tag_61\n    /* \"#utility.yul\":2663:2664   */\n  0x00\n    /* \"#utility.yul\":2656:2661   */\n  dup3\n    /* \"#utility.yul\":2626:2665   */\n  tag_22\n  jump\t// in\ntag_61:\n    /* \"#utility.yul\":2599:2600   */\n  0x01\n    /* \"#utility.yul\":2592:2597   */\n  dup2\n    /* \"#utility.yul\":2588:2601   */\n  add\n    /* \"#utility.yul\":2579:2601   */\n  swap1\n  pop\n    /* \"#utility.yul\":2555:2675   */\n  jump(tag_58)\ntag_60:\n    /* \"#utility.yul\":2495:2681   */\n  pop\n  pop\n  jump\t// out\n    /* \"#utility.yul\":2687:3230   */\ntag_24:\n    /* \"#utility.yul\":2788:2790   */\n  0x1f\n    /* \"#utility.yul\":2783:2786   */\n  dup3\n    /* \"#utility.yul\":2780:2791   */\n  gt\n    /* \"#utility.yul\":2777:3223   */\n  iszero\n  tag_63\n  jumpi\n    /* \"#utility.yul\":2822:2860   */\n  tag_64\n    /* \"#utility.yul\":2854:2859   */\n  dup2\n    /* \"#utility.yul\":2822:2860   */\n  tag_12\n  jump\t// in\ntag_64:\n    /* \"#utility.yul\":2906:2935   */\n  tag_65\n    /* \"#utility.yul\":2924:2934   */\n  dup5\n    /* \"#utility.yul\":2906:2935   */\n  tag_13\n  jump\t// in\ntag_65:\n    /* \"#utility.yul\":2896:2904   */\n  dup2\n    /* \"#utility.yul\":2892:2936   */\n  add\n    /* \"#utility.yul\":3089:3091   */\n  0x20\n    /* \"#utility.yul\":3077:3087   */\n  dup6\n    /* \"#utility.yul\":3074:3092   */\n  lt\n    /* \"#utility.yul\":3071:3120   */\n  iszero\n  tag_66\n  jumpi\n    /* \"#utility.yul\":3110:3118   */\n  dup2\n    /* \"#utility.yul\":3095:3118   */\n  swap1\n  pop\n    /* \"#utility.yul\":3071:3120   */\ntag_66:\n    /* \"#utility.yul\":3133:3213   */\n  tag_67\n    /* \"#utility.yul\":3189:3211   */\n  tag_68\n    /* \"#utility.yul\":3207:3210   */\n  dup6\n    /* \"#utility.yul\":3189:3211   */\n  tag_13\n  jump\t// in\ntag_68:\n    /* \"#utility.yul\":3179:3187   */\n  dup4\n    /* \"#utility.yul\":3175:3212   */\n  add\n    /* \"#utility.yul\":3162:3173   */\n  dup3\n    /* \"#utility.yul\":3133:3213   */\n  tag_23\n  jump\t// in\ntag_67:\n    /* \"#utility.yul\":2792:3223   */\n  pop\n  pop\n    /* \"#utility.yul\":2777:3223   */\ntag_63:\n    /* \"#utility.yul\":2687:3230   */\n  pop\n  pop\n  pop\n  jump\t// out\n    /* \"#utility.yul\":3236:3353   */\ntag_25:\n    /* \"#utility.yul\":3290:3298   */\n  0x00\n    /* \"#utility.yul\":3340:3345   */\n  dup3\n    /* \"#utility.yul\":3334:3338   */\n  dup3\n    /* \"#utility.yul\":3330:3346   */\n  shr\n    /* \"#utility.yul\":3309:3346   */\n  swap1\n  pop\n    /* \"#utility.yul\":3236:3353   */\n  swap3\n  swap2\n  pop\n  pop\n  jump\t// out\n    /* \"#utility.yul\":3359:3528   */\ntag_26:\n    /* \"#utility.yul\":3403:3409   */\n  0x00\n    /* \"#utility.yul\":3436:3487   */\n  tag_71\n    /* \"#utility.yul\":3484:3485   */\n  0x00\n    /* \"#utility.yul\":3480:3486   */\n  not\n    /* \"#utility.yul\":3472:3477   */\n  dup5\n    /* \"#utility.yul\":3469:3470   */\n  0x08\n    /* \"#utility.yul\":3465:3478   */\n  mul\n    /* \"#utility.yul\":3436:3487   */\n  tag_25\n  jump\t// in\ntag_71:\n    /* \"#utility.yul\":3432:3488   */\n  not\n    /* \"#utility.yul\":3517:3521   */\n  dup1\n    /* \"#utility.yul\":3511:3515   */\n  dup4\n    /* \"#utility.yul\":3507:3522   */\n  and\n    /* \"#utility.yul\":3497:3522   */\n  swap2\n  pop\n    /* \"#utility.yul\":3410:3528   */\n  pop\n    /* \"#utility.yul\":3359:3528   */\n  swap3\n  swap2\n  pop\n  pop\n  jump\t// out\n    /* \"#utility.yul\":3533:3828   */\ntag_27:\n    /* \"#utility.yul\":3609:3613   */\n  0x00\n    /* \"#utility.yul\":3755:3784   */\n  tag_73\n    /* \"#utility.yul\":3780:3783   */\n  dup4\n    /* \"#utility.yul\":3774:3778   */\n  dup4\n    /* \"#utility.yul\":3755:3784   */\n  tag_26\n  jump\t// in\ntag_73:\n    /* \"#utility.yul\":3747:3784   */\n  swap2\n  pop\n    /* \"#utility.yul\":3817:3820   */\n  dup3\n    /* \"#utility.yul\":3814:3815   */\n  0x02\n    /* \"#utility.yul\":3810:3821   */\n  mul\n    /* \"#utility.yul\":3804:3808   */\n  dup3\n    /* \"#utility.yul\":3801:3822   */\n  or\n    /* \"#utility.yul\":3793:3822   */\n  swap1\n  pop\n    /* \"#utility.yul\":3533:3828   */\n  swap3\n  swap2\n  pop\n  pop\n  jump\t// out\n    /* \"#utility.yul\":3833:5228   */\ntag_2:\n    /* \"#utility.yul\":3950:3987   */\n  tag_75\n    /* \"#utility.yul\":3983:3986   */\n  dup3\n    /* \"#utility.yul\":3950:3987   */\n  tag_8\n  jump\t// in\ntag_75:\n    /* \"#utility.yul\":4052:4070   */\n  0xffffffffffffffff\n    /* \"#utility.yul\":4044:4050   */\n  dup2\n    /* \"#utility.yul\":4041:4071   */\n  gt\n    /* \"#utility.yul\":4038:4094   */\n  iszero\n  tag_76\n  jumpi\n    /* \"#utility.yul\":4074:4092   */\n  tag_77\n  tag_9\n  jump\t// in\ntag_77:\n    /* \"#utility.yul\":4038:4094   */\ntag_76:\n    /* \"#utility.yul\":4118:4156   */\n  tag_78\n    /* \"#utility.yul\":4150:4154   */\n  dup3\n    /* \"#utility.yul\":4144:4155   */\n  sload\n    /* \"#utility.yul\":4118:4156   */\n  tag_11\n  jump\t// in\ntag_78:\n    /* \"#utility.yul\":4203:4270   */\n  tag_79\n    /* \"#utility.yul\":4263:4269   */\n  dup3\n    /* \"#utility.yul\":4255:4261   */\n  dup3\n    /* \"#utility.yul\":4249:4253   */\n  dup6\n    /* \"#utility.yul\":4203:4270   */\n  tag_24\n  jump\t// in\ntag_79:\n    /* \"#utility.yul\":4297:4298   */\n  0x00\n    /* \"#utility.yul\":4321:4325   */\n  0x20\n    /* \"#utility.yul\":4308:4325   */\n  swap1\n  pop\n    /* \"#utility.yul\":4353:4355   */\n  0x1f\n    /* \"#utility.yul\":4345:4351   */\n  dup4\n    /* \"#utility.yul\":4342:4356   */\n  gt\n    /* \"#utility.yul\":4370:4371   */\n  0x01\n    /* \"#utility.yul\":4365:4983   */\n  dup2\n  eq\n  tag_81\n  jumpi\n    /* \"#utility.yul\":5027:5028   */\n  0x00\n    /* \"#utility.yul\":5044:5050   */\n  dup5\n    /* \"#utility.yul\":5041:5118   */\n  iszero\n  tag_82\n  jumpi\n    /* \"#utility.yul\":5093:5102   */\n  dup3\n    /* \"#utility.yul\":5088:5091   */\n  dup8\n    /* \"#utility.yul\":5084:5103   */\n  add\n    /* \"#utility.yul\":5078:5104   */\n  mload\n    /* \"#utility.yul\":5069:5104   */\n  swap1\n  pop\n    /* \"#utility.yul\":5041:5118   */\ntag_82:\n    /* \"#utility.yul\":5144:5211   */\n  tag_83\n    /* \"#utility.yul\":5204:5210   */\n  dup6\n    /* \"#utility.yul\":5197:5202   */\n  dup3\n    /* \"#utility.yul\":5144:5211   */\n  tag_27\n  jump\t// in\ntag_83:\n    /* \"#utility.yul\":5138:5142   */\n  dup7\n    /* \"#utility.yul\":5131:5212   */\n  sstore\n    /* \"#utility.yul\":5000:5222   */\n  pop\n    /* \"#utility.yul\":4335:5222   */\n  jump(tag_80)\n    /* \"#utility.yul\":4365:4983   */\ntag_81:\n    /* \"#utility.yul\":4417:4421   */\n  0x1f\n    /* \"#utility.yul\":4413:4422   */\n  not\n    /* \"#utility.yul\":4405:4411   */\n  dup5\n    /* \"#utility.yul\":4401:4423   */\n  and\n    /* \"#utility.yul\":4451:4488   */\n  tag_84\n    /* \"#utility.yul\":4483:4487   */\n  dup7\n    /* \"#utility.yul\":4451:4488   */\n  tag_12\n  jump\t// in\ntag_84:\n    /* \"#utility.yul\":4510:4511   */\n  0x00\n    /* \"#utility.yul\":4524:4732   */\ntag_85:\n    /* \"#utility.yul\":4538:4545   */\n  dup3\n    /* \"#utility.yul\":4535:4536   */\n  dup2\n    /* \"#utility.yul\":4532:4546   */\n  lt\n    /* \"#utility.yul\":4524:4732   */\n  iszero\n  tag_87\n  jumpi\n    /* \"#utility.yul\":4617:4626   */\n  dup5\n    /* \"#utility.yul\":4612:4615   */\n  dup10\n    /* \"#utility.yul\":4608:4627   */\n  add\n    /* \"#utility.yul\":4602:4628   */\n  mload\n    /* \"#utility.yul\":4594:4600   */\n  dup3\n    /* \"#utility.yul\":4587:4629   */\n  sstore\n    /* \"#utility.yul\":4668:4669   */\n  0x01\n    /* \"#utility.yul\":4660:4666   */\n  dup3\n    /* \"#utility.yul\":4656:4670   */\n  add\n    /* \"#utility.yul\":4646:4670   */\n  swap2\n  pop\n    /* \"#utility.yul\":4715:4717   */\n  0x20\n    /* \"#utility.yul\":4704:4713   */\n  dup6\n    /* \"#utility.yul\":4700:4718   */\n  add\n    /* \"#utility.yul\":4687:4718   */\n  swap5\n  pop\n    /* \"#utility.yul\":4561:4565   */\n  0x20\n    /* \"#utility.yul\":4558:4559   */\n  dup2\n    /* \"#utility.yul\":4554:4566   */\n  add\n    /* \"#utility.yul\":4549:4566   */\n  swap1\n  pop\n    /* \"#utility.yul\":4524:4732   */\n  jump(tag_85)\ntag_87:\n    /* \"#utility.yul\":4760:4766   */\n  dup7\n    /* \"#utility.yul\":4751:4758   */\n  dup4\n    /* \"#utility.yul\":4748:4767   */\n  lt\n    /* \"#utility.yul\":4745:4924   */\n  iszero\n  tag_88\n  jumpi\n    /* \"#utility.yul\":4818:4827   */\n  dup5\n    /* \"#utility.yul\":4813:4816   */\n  dup10\n    /* \"#utility.yul\":4809:4828   */\n  add\n    /* \"#utility.yul\":4803:4829   */\n  mload\n    /* \"#utility.yul\":4861:4909   */\n  tag_89\n    /* \"#utility.yul\":4903:4907   */\n  0x1f\n    /* \"#utility.yul\":4895:4901   */\n  dup10\n    /* \"#utility.yul\":4891:4908   */\n  and\n    /* \"#utility.yul\":4880:4889   */\n  dup3\n    /* \"#utility.yul\":4861:4909   */\n  tag_26\n  jump\t// in\ntag_89:\n    /* \"#utility.yul\":4853:4859   */\n  dup4\n    /* \"#utility.yul\":4846:4910   */\n  sstore\n    /* \"#utility.yul\":4768:4924   */\n  pop\n    /* \"#utility.yul\":4745:4924   */\ntag_88:\n    /* \"#utility.yul\":4970:4971   */\n  0x01\n    /* \"#utility.yul\":4966:4967   */\n  0x02\n    /* \"#utility.yul\":4958:4964   */\n  dup9\n    /* \"#utility.yul\":4954:4968   */\n  mul\n    /* \"#utility.yul\":4950:4972   */\n  add\n    /* \"#utility.yul\":4944:4948   */\n  dup9\n    /* \"#utility.yul\":4937:4973   */\n  sstore\n    /* \"#utility.yul\":4372:4983   */\n  pop\n  pop\n  pop\n    /* \"#utility.yul\":4335:5222   */\ntag_80:\n  pop\n    /* \"#utility.yul\":3925:5228   */\n  pop\n  pop\n  pop\n    /* \"#utility.yul\":3833:5228   */\n  pop\n  pop\n  jump\t// out\n    /* \"contracts/store2.sol\":149:691  contract storefavnumber {... */\ntag_7:\n  dataSize(sub_0)\n  dup1\n  dataOffset(sub_0)\n  0x00\n  codecopy\n  0x00\n  return\nstop\n\nsub_0: assembly {\n        /* \"contracts/store2.sol\":149:691  contract storefavnumber {... */\n      mstore(0x40, 0x80)\n      callvalue\n      dup1\n      iszero\n      tag_1\n      jumpi\n      revert(0x00, 0x00)\n    tag_1:\n      pop\n      jumpi(tag_2, lt(calldatasize, 0x04))\n      shr(0xe0, calldataload(0x00))\n      dup1\n      0x20b2d87f\n      eq\n      tag_3\n      jumpi\n      dup1\n      0x6057361d\n      eq\n      tag_4\n      jumpi\n      dup1\n      0x6128f298\n      eq\n      tag_5\n      jumpi\n      dup1\n      0x66993d66\n      eq\n      tag_6\n      jumpi\n      dup1\n      0x77ec2b55\n      eq\n      tag_7\n      jumpi\n      dup1\n      0xa210cf3f\n      eq\n      tag_8\n      jumpi\n    tag_2:\n      revert(0x00, 0x00)\n        /* \"contracts/store2.sol\":358:424  People public person3 = People({favouritenumber: 45,name: \"ally\"}) */\n    tag_3:\n      tag_9\n      tag_10\n      jump\t// in\n    tag_9:\n      mload(0x40)\n      tag_11\n      swap3\n      swap2\n      swap1\n      tag_12\n      jump\t// in\n    tag_11:\n      mload(0x40)\n      dup1\n      swap2\n      sub\n      swap1\n      return\n        /* \"contracts/store2.sol\":590:689  function store(uint256 _favouritenumber) public {... */\n    tag_4:\n      tag_13\n      0x04\n      dup1\n      calldatasize\n      sub\n      dup2\n      add\n      swap1\n      tag_14\n      swap2\n      swap1\n      tag_15\n      jump\t// in\n    tag_14:\n      tag_16\n      jump\t// in\n    tag_13:\n      stop\n        /* \"contracts/store2.sol\":179:206  uint public favouritenumber */\n    tag_5:\n      tag_17\n      tag_18\n      jump\t// in\n    tag_17:\n      mload(0x40)\n      tag_19\n      swap2\n      swap1\n      tag_20\n      jump\t// in\n    tag_19:\n      mload(0x40)\n      dup1\n      swap2\n      sub\n      swap1\n      return\n        /* \"contracts/store2.sol\":284:352  People public person2 = People({favouritenumber: 8,name: \"patrick\"}) */\n    tag_6:\n      tag_21\n      tag_22\n      jump\t// in\n    tag_21:\n      mload(0x40)\n      tag_23\n      swap3\n      swap2\n      swap1\n      tag_12\n      jump\t// in\n    tag_23:\n      mload(0x40)\n      dup1\n      swap2\n      sub\n      swap1\n      return\n        /* \"contracts/store2.sol\":212:278  People public person = People({favouritenumber: 2,name: \"akshat\"}) */\n    tag_7:\n      tag_24\n      tag_25\n      jump\t// in\n    tag_24:\n      mload(0x40)\n      tag_26\n      swap3\n      swap2\n      swap1\n      tag_12\n      jump\t// in\n    tag_26:\n      mload(0x40)\n      dup1\n      swap2\n      sub\n      swap1\n      return\n        /* \"contracts/store2.sol\":430:494  People public person4 = People({favouritenumber: 9,name: \"bob\"}) */\n    tag_8:\n      tag_27\n      tag_28\n      jump\t// in\n    tag_27:\n      mload(0x40)\n      tag_29\n      swap3\n      swap2\n      swap1\n      tag_12\n      jump\t// in\n    tag_29:\n      mload(0x40)\n      dup1\n      swap2\n      sub\n      swap1\n      return\n        /* \"contracts/store2.sol\":358:424  People public person3 = People({favouritenumber: 45,name: \"ally\"}) */\n    tag_10:\n      0x05\n      dup1\n      0x00\n      add\n      sload\n      swap1\n      dup1\n      0x01\n      add\n      dup1\n      sload\n      tag_30\n      swap1\n      tag_31\n      jump\t// in\n    tag_30:\n      dup1\n      0x1f\n      add\n      0x20\n      dup1\n      swap2\n      div\n      mul\n      0x20\n      add\n      mload(0x40)\n      swap1\n      dup2\n      add\n      0x40\n      mstore\n      dup1\n      swap3\n      swap2\n      swap1\n      dup2\n      dup2\n      mstore\n      0x20\n      add\n      dup3\n      dup1\n      sload\n      tag_32\n      swap1\n      tag_31\n      jump\t// in\n    tag_32:\n      dup1\n      iszero\n      tag_33\n      jumpi\n      dup1\n      0x1f\n      lt\n      tag_34\n      jumpi\n      0x0100\n      dup1\n      dup4\n      sload\n      div\n      mul\n      dup4\n      mstore\n      swap2\n      0x20\n      add\n      swap2\n      jump(tag_33)\n    tag_34:\n      dup3\n      add\n      swap2\n      swap1\n      0x00\n      mstore\n      keccak256(0x00, 0x20)\n      swap1\n    tag_35:\n      dup2\n      sload\n      dup2\n      mstore\n      swap1\n      0x01\n      add\n      swap1\n      0x20\n      add\n      dup1\n      dup4\n      gt\n      tag_35\n      jumpi\n      dup3\n      swap1\n      sub\n      0x1f\n      and\n      dup3\n      add\n      swap2\n    tag_33:\n      pop\n      pop\n      pop\n      pop\n      pop\n      swap1\n      pop\n      dup3\n      jump\t// out\n        /* \"contracts/store2.sol\":590:689  function store(uint256 _favouritenumber) public {... */\n    tag_16:\n        /* \"contracts/store2.sol\":666:682  _favouritenumber */\n      dup1\n        /* \"contracts/store2.sol\":648:663  favouritenumber */\n      0x00\n        /* \"contracts/store2.sol\":648:682  favouritenumber = _favouritenumber */\n      dup2\n      swap1\n      sstore\n      pop\n        /* \"contracts/store2.sol\":590:689  function store(uint256 _favouritenumber) public {... */\n      pop\n      jump\t// out\n        /* \"contracts/store2.sol\":179:206  uint public favouritenumber */\n    tag_18:\n      sload(0x00)\n      dup2\n      jump\t// out\n        /* \"contracts/store2.sol\":284:352  People public person2 = People({favouritenumber: 8,name: \"patrick\"}) */\n    tag_22:\n      0x03\n      dup1\n      0x00\n      add\n      sload\n      swap1\n      dup1\n      0x01\n      add\n      dup1\n      sload\n      tag_37\n      swap1\n      tag_31\n      jump\t// in\n    tag_37:\n      dup1\n      0x1f\n      add\n      0x20\n      dup1\n      swap2\n      div\n      mul\n      0x20\n      add\n      mload(0x40)\n      swap1\n      dup2\n      add\n      0x40\n      mstore\n      dup1\n      swap3\n      swap2\n      swap1\n      dup2\n      dup2\n      mstore\n      0x20\n      add\n      dup3\n      dup1\n      sload\n      tag_38\n      swap1\n      tag_31\n      jump\t// in\n    tag_38:\n      dup1\n      iszero\n      tag_39\n      jumpi\n      dup1\n      0x1f\n      lt\n      tag_40\n      jumpi\n      0x0100\n      dup1\n      dup4\n      sload\n      div\n      mul\n      dup4\n      mstore\n      swap2\n      0x20\n      add\n      swap2\n      jump(tag_39)\n    tag_40:\n      dup3\n      add\n      swap2\n      swap1\n      0x00\n      mstore\n      keccak256(0x00, 0x20)\n      swap1\n    tag_41:\n      dup2\n      sload\n      dup2\n      mstore\n      swap1\n      0x01\n      add\n      swap1\n      0x20\n      add\n      dup1\n      dup4\n      gt\n      tag_41\n      jumpi\n      dup3\n      swap1\n      sub\n      0x1f\n      and\n      dup3\n      add\n      swap2\n    tag_39:\n      pop\n      pop\n      pop\n      pop\n      pop\n      swap1\n      pop\n      dup3\n      jump\t// out\n        /* \"contracts/store2.sol\":212:278  People public person = People({favouritenumber: 2,name: \"akshat\"}) */\n    tag_25:\n      0x01\n      dup1\n      0x00\n      add\n      sload\n      swap1\n      dup1\n      0x01\n      add\n      dup1\n      sload\n      tag_42\n      swap1\n      tag_31\n      jump\t// in\n    tag_42:\n      dup1\n      0x1f\n      add\n      0x20\n      dup1\n      swap2\n      div\n      mul\n      0x20\n      add\n      mload(0x40)\n      swap1\n      dup2\n      add\n      0x40\n      mstore\n      dup1\n      swap3\n      swap2\n      swap1\n      dup2\n      dup2\n      mstore\n      0x20\n      add\n      dup3\n      dup1\n      sload\n      tag_43\n      swap1\n      tag_31\n      jump\t// in\n    tag_43:\n      dup1\n      iszero\n      tag_44\n      jumpi\n      dup1\n      0x1f\n      lt\n      tag_45\n      jumpi\n      0x0100\n      dup1\n      dup4\n      sload\n      div\n      mul\n      dup4\n      mstore\n      swap2\n      0x20\n      add\n      swap2\n      jump(tag_44)\n    tag_45:\n      dup3\n      add\n      swap2\n      swap1\n      0x00\n      mstore\n      keccak256(0x00, 0x20)\n      swap1\n    tag_46:\n      dup2\n      sload\n      dup2\n      mstore\n      swap1\n      0x01\n      add\n      swap1\n      0x20\n      add\n      dup1\n      dup4\n      gt\n      tag_46\n      jumpi\n      dup3\n      swap1\n      sub\n      0x1f\n      and\n      dup3\n      add\n      swap2\n    tag_44:\n      pop\n      pop\n      pop\n      pop\n      pop\n      swap1\n      pop\n      dup3\n      jump\t// out\n        /* \"contracts/store2.sol\":430:494  People public person4 = People({favouritenumber: 9,name: \"bob\"}) */\n    tag_28:\n      0x07\n      dup1\n      0x00\n      add\n      sload\n      swap1\n      dup1\n      0x01\n      add\n      dup1\n      sload\n      tag_47\n      swap1\n      tag_31\n      jump\t// in\n    tag_47:\n      dup1\n      0x1f\n      add\n      0x20\n      dup1\n      swap2\n      div\n      mul\n      0x20\n      add\n      mload(0x40)\n      swap1\n      dup2\n      add\n      0x40\n      mstore\n      dup1\n      swap3\n      swap2\n      swap1\n      dup2\n      dup2\n      mstore\n      0x20\n      add\n      dup3\n      dup1\n      sload\n      tag_48\n      swap1\n      tag_31\n      jump\t// in\n    tag_48:\n      dup1\n      iszero\n      tag_49\n      jumpi\n      dup1\n      0x1f\n      lt\n      tag_50\n      jumpi\n      0x0100\n      dup1\n      dup4\n      sload\n      div\n      mul\n      dup4\n      mstore\n      swap2\n      0x20\n      add\n      swap2\n      jump(tag_49)\n    tag_50:\n      dup3\n      add\n      swap2\n      swap1\n      0x00\n      mstore\n      keccak256(0x00, 0x20)\n      swap1\n    tag_51:\n      dup2\n      sload\n      dup2\n      mstore\n      swap1\n      0x01\n      add\n      swap1\n      0x20\n      add\n      dup1\n      dup4\n      gt\n      tag_51\n      jumpi\n      dup3\n      swap1\n      sub\n      0x1f\n      and\n      dup3\n      add\n      swap2\n    tag_49:\n      pop\n      pop\n      pop\n      pop\n      pop\n      swap1\n      pop\n      dup3\n      jump\t// out\n        /* \"#utility.yul\":7:84   */\n    tag_52:\n        /* \"#utility.yul\":44:51   */\n      0x00\n        /* \"#utility.yul\":73:78   */\n      dup2\n        /* \"#utility.yul\":62:78   */\n      swap1\n      pop\n        /* \"#utility.yul\":7:84   */\n      swap2\n      swap1\n      pop\n      jump\t// out\n        /* \"#utility.yul\":90:208   */\n    tag_53:\n        /* \"#utility.yul\":177:201   */\n      tag_68\n        /* \"#utility.yul\":195:200   */\n      dup2\n        /* \"#utility.yul\":177:201   */\n      tag_52\n      jump\t// in\n    tag_68:\n        /* \"#utility.yul\":172:175   */\n      dup3\n        /* \"#utility.yul\":165:202   */\n      mstore\n        /* \"#utility.yul\":90:208   */\n      pop\n      pop\n      jump\t// out\n        /* \"#utility.yul\":214:313   */\n    tag_54:\n        /* \"#utility.yul\":266:272   */\n      0x00\n        /* \"#utility.yul\":300:305   */\n      dup2\n        /* \"#utility.yul\":294:306   */\n      mload\n        /* \"#utility.yul\":284:306   */\n      swap1\n      pop\n        /* \"#utility.yul\":214:313   */\n      swap2\n      swap1\n      pop\n      jump\t// out\n        /* \"#utility.yul\":319:488   */\n    tag_55:\n        /* \"#utility.yul\":403:414   */\n      0x00\n        /* \"#utility.yul\":437:443   */\n      dup3\n        /* \"#utility.yul\":432:435   */\n      dup3\n        /* \"#utility.yul\":425:444   */\n      mstore\n        /* \"#utility.yul\":477:481   */\n      0x20\n        /* \"#utility.yul\":472:475   */\n      dup3\n        /* \"#utility.yul\":468:482   */\n      add\n        /* \"#utility.yul\":453:482   */\n      swap1\n      pop\n        /* \"#utility.yul\":319:488   */\n      swap3\n      swap2\n      pop\n      pop\n      jump\t// out\n        /* \"#utility.yul\":494:633   */\n    tag_56:\n        /* \"#utility.yul\":583:589   */\n      dup3\n        /* \"#utility.yul\":578:581   */\n      dup2\n        /* \"#utility.yul\":573:576   */\n      dup4\n        /* \"#utility.yul\":567:590   */\n      mcopy\n        /* \"#utility.yul\":624:625   */\n      0x00\n        /* \"#utility.yul\":615:621   */\n      dup4\n        /* \"#utility.yul\":610:613   */\n      dup4\n        /* \"#utility.yul\":606:622   */\n      add\n        /* \"#utility.yul\":599:626   */\n      mstore\n        /* \"#utility.yul\":494:633   */\n      pop\n      pop\n      pop\n      jump\t// out\n        /* \"#utility.yul\":639:741   */\n    tag_57:\n        /* \"#utility.yul\":680:686   */\n      0x00\n        /* \"#utility.yul\":731:733   */\n      0x1f\n        /* \"#utility.yul\":727:734   */\n      not\n        /* \"#utility.yul\":722:724   */\n      0x1f\n        /* \"#utility.yul\":715:720   */\n      dup4\n        /* \"#utility.yul\":711:725   */\n      add\n        /* \"#utility.yul\":707:735   */\n      and\n        /* \"#utility.yul\":697:735   */\n      swap1\n      pop\n        /* \"#utility.yul\":639:741   */\n      swap2\n      swap1\n      pop\n      jump\t// out\n        /* \"#utility.yul\":747:1124   */\n    tag_58:\n        /* \"#utility.yul\":835:838   */\n      0x00\n        /* \"#utility.yul\":863:902   */\n      tag_74\n        /* \"#utility.yul\":896:901   */\n      dup3\n        /* \"#utility.yul\":863:902   */\n      tag_54\n      jump\t// in\n    tag_74:\n        /* \"#utility.yul\":918:989   */\n      tag_75\n        /* \"#utility.yul\":982:988   */\n      dup2\n        /* \"#utility.yul\":977:980   */\n      dup6\n        /* \"#utility.yul\":918:989   */\n      tag_55\n      jump\t// in\n    tag_75:\n        /* \"#utility.yul\":911:989   */\n      swap4\n      pop\n        /* \"#utility.yul\":998:1063   */\n      tag_76\n        /* \"#utility.yul\":1056:1062   */\n      dup2\n        /* \"#utility.yul\":1051:1054   */\n      dup6\n        /* \"#utility.yul\":1044:1048   */\n      0x20\n        /* \"#utility.yul\":1037:1042   */\n      dup7\n        /* \"#utility.yul\":1033:1049   */\n      add\n        /* \"#utility.yul\":998:1063   */\n      tag_56\n      jump\t// in\n    tag_76:\n        /* \"#utility.yul\":1088:1117   */\n      tag_77\n        /* \"#utility.yul\":1110:1116   */\n      dup2\n        /* \"#utility.yul\":1088:1117   */\n      tag_57\n      jump\t// in\n    tag_77:\n        /* \"#utility.yul\":1083:1086   */\n      dup5\n        /* \"#utility.yul\":1079:1118   */\n      add\n        /* \"#utility.yul\":1072:1118   */\n      swap2\n      pop\n        /* \"#utility.yul\":839:1124   */\n      pop\n        /* \"#utility.yul\":747:1124   */\n      swap3\n      swap2\n      pop\n      pop\n      jump\t// out\n        /* \"#utility.yul\":1130:1553   */\n    tag_12:\n        /* \"#utility.yul\":1271:1275   */\n      0x00\n        /* \"#utility.yul\":1309:1311   */\n      0x40\n        /* \"#utility.yul\":1298:1307   */\n      dup3\n        /* \"#utility.yul\":1294:1312   */\n      add\n        /* \"#utility.yul\":1286:1312   */\n      swap1\n      pop\n        /* \"#utility.yul\":1322:1393   */\n      tag_79\n        /* \"#utility.yul\":1390:1391   */\n      0x00\n        /* \"#utility.yul\":1379:1388   */\n      dup4\n        /* \"#utility.yul\":1375:1392   */\n      add\n        /* \"#utility.yul\":1366:1372   */\n      dup6\n        /* \"#utility.yul\":1322:1393   */\n      tag_53\n      jump\t// in\n    tag_79:\n        /* \"#utility.yul\":1440:1449   */\n      dup2\n        /* \"#utility.yul\":1434:1438   */\n      dup2\n        /* \"#utility.yul\":1430:1450   */\n      sub\n        /* \"#utility.yul\":1425:1427   */\n      0x20\n        /* \"#utility.yul\":1414:1423   */\n      dup4\n        /* \"#utility.yul\":1410:1428   */\n      add\n        /* \"#utility.yul\":1403:1451   */\n      mstore\n        /* \"#utility.yul\":1468:1546   */\n      tag_80\n        /* \"#utility.yul\":1541:1545   */\n      dup2\n        /* \"#utility.yul\":1532:1538   */\n      dup5\n        /* \"#utility.yul\":1468:1546   */\n      tag_58\n      jump\t// in\n    tag_80:\n        /* \"#utility.yul\":1460:1546   */\n      swap1\n      pop\n        /* \"#utility.yul\":1130:1553   */\n      swap4\n      swap3\n      pop\n      pop\n      pop\n      jump\t// out\n        /* \"#utility.yul\":1640:1757   */\n    tag_60:\n        /* \"#utility.yul\":1749:1750   */\n      0x00\n        /* \"#utility.yul\":1746:1747   */\n      0x00\n        /* \"#utility.yul\":1739:1751   */\n      revert\n        /* \"#utility.yul\":1886:2008   */\n    tag_62:\n        /* \"#utility.yul\":1959:1983   */\n      tag_85\n        /* \"#utility.yul\":1977:1982   */\n      dup2\n        /* \"#utility.yul\":1959:1983   */\n      tag_52\n      jump\t// in\n    tag_85:\n        /* \"#utility.yul\":1952:1957   */\n      dup2\n        /* \"#utility.yul\":1949:1984   */\n      eq\n        /* \"#utility.yul\":1939:2002   */\n      tag_86\n      jumpi\n        /* \"#utility.yul\":1998:1999   */\n      0x00\n        /* \"#utility.yul\":1995:1996   */\n      0x00\n        /* \"#utility.yul\":1988:2000   */\n      revert\n        /* \"#utility.yul\":1939:2002   */\n    tag_86:\n        /* \"#utility.yul\":1886:2008   */\n      pop\n      jump\t// out\n        /* \"#utility.yul\":2014:2153   */\n    tag_63:\n        /* \"#utility.yul\":2060:2065   */\n      0x00\n        /* \"#utility.yul\":2098:2104   */\n      dup2\n        /* \"#utility.yul\":2085:2105   */\n      calldataload\n        /* \"#utility.yul\":2076:2105   */\n      swap1\n      pop\n        /* \"#utility.yul\":2114:2147   */\n      tag_88\n        /* \"#utility.yul\":2141:2146   */\n      dup2\n        /* \"#utility.yul\":2114:2147   */\n      tag_62\n      jump\t// in\n    tag_88:\n        /* \"#utility.yul\":2014:2153   */\n      swap3\n      swap2\n      pop\n      pop\n      jump\t// out\n        /* \"#utility.yul\":2159:2488   */\n    tag_15:\n        /* \"#utility.yul\":2218:2224   */\n      0x00\n        /* \"#utility.yul\":2267:2269   */\n      0x20\n        /* \"#utility.yul\":2255:2264   */\n      dup3\n        /* \"#utility.yul\":2246:2253   */\n      dup5\n        /* \"#utility.yul\":2242:2265   */\n      sub\n        /* \"#utility.yul\":2238:2270   */\n      slt\n        /* \"#utility.yul\":2235:2354   */\n      iszero\n      tag_90\n      jumpi\n        /* \"#utility.yul\":2273:2352   */\n      tag_91\n      tag_60\n      jump\t// in\n    tag_91:\n        /* \"#utility.yul\":2235:2354   */\n    tag_90:\n        /* \"#utility.yul\":2393:2394   */\n      0x00\n        /* \"#utility.yul\":2418:2471   */\n      tag_92\n        /* \"#utility.yul\":2463:2470   */\n      dup5\n        /* \"#utility.yul\":2454:2460   */\n      dup3\n        /* \"#utility.yul\":2443:2452   */\n      dup6\n        /* \"#utility.yul\":2439:2461   */\n      add\n        /* \"#utility.yul\":2418:2471   */\n      tag_63\n      jump\t// in\n    tag_92:\n        /* \"#utility.yul\":2408:2471   */\n      swap2\n      pop\n        /* \"#utility.yul\":2364:2481   */\n      pop\n        /* \"#utility.yul\":2159:2488   */\n      swap3\n      swap2\n      pop\n      pop\n      jump\t// out\n        /* \"#utility.yul\":2494:2716   */\n    tag_20:\n        /* \"#utility.yul\":2587:2591   */\n      0x00\n        /* \"#utility.yul\":2625:2627   */\n      0x20\n        /* \"#utility.yul\":2614:2623   */\n      dup3\n        /* \"#utility.yul\":2610:2628   */\n      add\n        /* \"#utility.yul\":2602:2628   */\n      swap1\n      pop\n        /* \"#utility.yul\":2638:2709   */\n      tag_94\n        /* \"#utility.yul\":2706:2707   */\n      0x00\n        /* \"#utility.yul\":2695:2704   */\n      dup4\n        /* \"#utility.yul\":2691:2708   */\n      add\n        /* \"#utility.yul\":2682:2688   */\n      dup5\n        /* \"#utility.yul\":2638:2709   */\n      tag_53\n      jump\t// in\n    tag_94:\n        /* \"#utility.yul\":2494:2716   */\n      swap3\n      swap2\n      pop\n      pop\n      jump\t// out\n        /* \"#utility.yul\":2722:2902   */\n    tag_64:\n        /* \"#utility.yul\":2770:2847   */\n      0x4e487b7100000000000000000000000000000000000000000000000000000000\n        /* \"#utility.yul\":2767:2768   */\n      0x00\n        /* \"#utility.yul\":2760:2848   */\n      mstore\n        /* \"#utility.yul\":2867:2871   */\n      0x22\n        /* \"#utility.yul\":2864:2865   */\n      0x04\n        /* \"#utility.yul\":2857:2872   */\n      mstore\n        /* \"#utility.yul\":2891:2895   */\n      0x24\n        /* \"#utility.yul\":2888:2889   */\n      0x00\n        /* \"#utility.yul\":2881:2896   */\n      revert\n        /* \"#utility.yul\":2908:3228   */\n    tag_31:\n        /* \"#utility.yul\":2952:2958   */\n      0x00\n        /* \"#utility.yul\":2989:2990   */\n      0x02\n        /* \"#utility.yul\":2983:2987   */\n      dup3\n        /* \"#utility.yul\":2979:2991   */\n      div\n        /* \"#utility.yul\":2969:2991   */\n      swap1\n      pop\n        /* \"#utility.yul\":3036:3037   */\n      0x01\n        /* \"#utility.yul\":3030:3034   */\n      dup3\n        /* \"#utility.yul\":3026:3038   */\n      and\n        /* \"#utility.yul\":3057:3075   */\n      dup1\n        /* \"#utility.yul\":3047:3128   */\n      tag_97\n      jumpi\n        /* \"#utility.yul\":3113:3117   */\n      0x7f\n        /* \"#utility.yul\":3105:3111   */\n      dup3\n        /* \"#utility.yul\":3101:3118   */\n      and\n        /* \"#utility.yul\":3091:3118   */\n      swap2\n      pop\n        /* \"#utility.yul\":3047:3128   */\n    tag_97:\n        /* \"#utility.yul\":3175:3177   */\n      0x20\n        /* \"#utility.yul\":3167:3173   */\n      dup3\n        /* \"#utility.yul\":3164:3178   */\n      lt\n        /* \"#utility.yul\":3144:3162   */\n      dup2\n        /* \"#utility.yul\":3141:3179   */\n      sub\n        /* \"#utility.yul\":3138:3222   */\n      tag_98\n      jumpi\n        /* \"#utility.yul\":3194:3212   */\n      tag_99\n      tag_64\n      jump\t// in\n    tag_99:\n        /* \"#utility.yul\":3138:3222   */\n    tag_98:\n        /* \"#utility.yul\":2959:3228   */\n      pop\n        /* \"#utility.yul\":2908:3228   */\n      swap2\n      swap1\n      pop\n      jump\t// out\n\n    auxdata: 0xa2646970667358221220406984f85c7515ff34ee0e7e2b6a3be2b49df7a74869390a9ff31be97880f33f64736f6c634300081d0033\n}\n",
				"bytecode": {
					"linkReferences": {},
					"object": "60806040526040518060400160405280600281526020016040518060400160405280600681526020017f616b73686174000000000000000000000000000000000000000000000000000081525081525060015f820151815f0155602082015181600101908161006e9190610406565b5050506040518060400160405280600881526020016040518060400160405280600781526020017f7061747269636b0000000000000000000000000000000000000000000000000081525081525060035f820151815f015560208201518160010190816100db9190610406565b5050506040518060400160405280602d81526020016040518060400160405280600481526020017f616c6c790000000000000000000000000000000000000000000000000000000081525081525060055f820151815f015560208201518160010190816101489190610406565b5050506040518060400160405280600981526020016040518060400160405280600381526020017f626f62000000000000000000000000000000000000000000000000000000000081525081525060075f820151815f015560208201518160010190816101b59190610406565b5050503480156101c3575f5ffd5b506104d5565b5f81519050919050565b7f4e487b71000000000000000000000000000000000000000000000000000000005f52604160045260245ffd5b7f4e487b71000000000000000000000000000000000000000000000000000000005f52602260045260245ffd5b5f600282049050600182168061024457607f821691505b60208210810361025757610256610200565b5b50919050565b5f819050815f5260205f209050919050565b5f6020601f8301049050919050565b5f82821b905092915050565b5f600883026102b97fffffffffffffffffffffffffffffffffffffffffffffffffffffffffffffffff8261027e565b6102c3868361027e565b95508019841693508086168417925050509392505050565b5f819050919050565b5f819050919050565b5f6103076103026102fd846102db565b6102e4565b6102db565b9050919050565b5f819050919050565b610320836102ed565b61033461032c8261030e565b84845461028a565b825550505050565b5f5f905090565b61034b61033c565b610356818484610317565b505050565b5b818110156103795761036e5f82610343565b60018101905061035c565b5050565b601f8211156103be5761038f8161025d565b6103988461026f565b810160208510156103a7578190505b6103bb6103b38561026f565b83018261035b565b50505b505050565b5f82821c905092915050565b5f6103de5f19846008026103c3565b1980831691505092915050565b5f6103f683836103cf565b9150826002028217905092915050565b61040f826101c9565b67ffffffffffffffff811115610428576104276101d3565b5b610432825461022d565b61043d82828561037d565b5f60209050601f83116001811461046e575f841561045c578287015190505b61046685826103eb565b8655506104cd565b601f19841661047c8661025d565b5f5b828110156104a35784890151825560018201915060208501945060208101905061047e565b868310156104c057848901516104bc601f8916826103cf565b8355505b6001600288020188555050505b505050505050565b61053f806104e25f395ff3fe608060405234801561000f575f5ffd5b5060043610610060575f3560e01c806320b2d87f146100645780636057361d146100835780636128f2981461009f57806366993d66146100bd57806377ec2b55146100dc578063a210cf3f146100fb575b5f5ffd5b61006c61011a565b60405161007a92919061040c565b60405180910390f35b61009d60048036038101906100989190610468565b6101b1565b005b6100a76101ba565b6040516100b49190610493565b60405180910390f35b6100c56101bf565b6040516100d392919061040c565b60405180910390f35b6100e4610256565b6040516100f292919061040c565b60405180910390f35b6101036102ed565b60405161011192919061040c565b60405180910390f35b6005805f015490806001018054610130906104d9565b80601f016020809104026020016040519081016040528092919081815260200182805461015c906104d9565b80156101a75780601f1061017e576101008083540402835291602001916101a7565b820191905f5260205f20905b81548152906001019060200180831161018a57829003601f168201915b5050505050905082565b805f8190555050565b5f5481565b6003805f0154908060010180546101d5906104d9565b80601f0160208091040260200160405190810160405280929190818152602001828054610201906104d9565b801561024c5780601f106102235761010080835404028352916020019161024c565b820191905f5260205f20905b81548152906001019060200180831161022f57829003601f168201915b5050505050905082565b6001805f01549080600101805461026c906104d9565b80601f0160208091040260200160405190810160405280929190818152602001828054610298906104d9565b80156102e35780601f106102ba576101008083540402835291602001916102e3565b820191905f5260205f20905b8154815290600101906020018083116102c657829003601f168201915b5050505050905082565b6007805f015490806001018054610303906104d9565b80601f016020809104026020016040519081016040528092919081815260200182805461032f906104d9565b801561037a5780601f106103515761010080835404028352916020019161037a565b820191905f5260205f20905b81548152906001019060200180831161035d57829003601f168201915b5050505050905082565b5f819050919050565b61039681610384565b82525050565b5f81519050919050565b5f82825260208201905092915050565b8281835e5f83830152505050565b5f601f19601f8301169050919050565b5f6103de8261039c565b6103e881856103a6565b93506103f88185602086016103b6565b610401816103c4565b840191505092915050565b5f60408201905061041f5f83018561038d565b818103602083015261043181846103d4565b90509392505050565b5f5ffd5b61044781610384565b8114610451575f5ffd5b50565b5f813590506104628161043e565b92915050565b5f6020828403121561047d5761047c61043a565b5b5f61048a84828501610454565b91505092915050565b5f6020820190506104a65f83018461038d565b92915050565b7f4e487b71000000000000000000000000000000000000000000000000000000005f52602260045260245ffd5b5f60028204905060018216806104f057607f821691505b602082108103610503576105026104ac565b5b5091905056fea2646970667358221220406984f85c7515ff34ee0e7e2b6a3be2b49df7a74869390a9ff31be97880f33f64736f6c634300081d0033",
					"opcodes": "PUSH1 0x80 PUSH1 0x40 MSTORE PUSH1 0x40 MLOAD DUP1 PUSH1 0x40 ADD PUSH1 0x40 MSTORE DUP1 PUSH1 0x2 DUP2 MSTORE PUSH1 0x20 ADD PUSH1 0x40 MLOAD DUP1 PUSH1 0x40 ADD PUSH1 0x40 MSTORE DUP1 PUSH1 0x6 DUP2 MSTORE PUSH1 0x20 ADD PUSH32 0x616B736861740000000000000000000000000000000000000000000000000000 DUP2 MSTORE POP DUP2 MSTORE POP PUSH1 0x1 PUSH0 DUP3 ADD MLOAD DUP2 PUSH0 ADD SSTORE PUSH1 0x20 DUP3 ADD MLOAD DUP2 PUSH1 0x1 ADD SWAP1 DUP2 PUSH2 0x6E SWAP2 SWAP1 PUSH2 0x406 JUMP JUMPDEST POP POP POP PUSH1 0x40 MLOAD DUP1 PUSH1 0x40 ADD PUSH1 0x40 MSTORE DUP1 PUSH1 0x8 DUP2 MSTORE PUSH1 0x20 ADD PUSH1 0x40 MLOAD DUP1 PUSH1 0x40 ADD PUSH1 0x40 MSTORE DUP1 PUSH1 0x7 DUP2 MSTORE PUSH1 0x20 ADD PUSH32 0x7061747269636B00000000000000000000000000000000000000000000000000 DUP2 MSTORE POP DUP2 MSTORE POP PUSH1 0x3 PUSH0 DUP3 ADD MLOAD DUP2 PUSH0 ADD SSTORE PUSH1 0x20 DUP3 ADD MLOAD DUP2 PUSH1 0x1 ADD SWAP1 DUP2 PUSH2 0xDB SWAP2 SWAP1 PUSH2 0x406 JUMP JUMPDEST POP POP POP PUSH1 0x40 MLOAD DUP1 PUSH1 0x40 ADD PUSH1 0x40 MSTORE DUP1 PUSH1 0x2D DUP2 MSTORE PUSH1 0x20 ADD PUSH1 0x40 MLOAD DUP1 PUSH1 0x40 ADD PUSH1 0x40 MSTORE DUP1 PUSH1 0x4 DUP2 MSTORE PUSH1 0x20 ADD PUSH32 0x616C6C7900000000000000000000000000000000000000000000000000000000 DUP2 MSTORE POP DUP2 MSTORE POP PUSH1 0x5 PUSH0 DUP3 ADD MLOAD DUP2 PUSH0 ADD SSTORE PUSH1 0x20 DUP3 ADD MLOAD DUP2 PUSH1 0x1 ADD SWAP1 DUP2 PUSH2 0x148 SWAP2 SWAP1 PUSH2 0x406 JUMP JUMPDEST POP POP POP PUSH1 0x40 MLOAD DUP1 PUSH1 0x40 ADD PUSH1 0x40 MSTORE DUP1 PUSH1 0x9 DUP2 MSTORE PUSH1 0x20 ADD PUSH1 0x40 MLOAD DUP1 PUSH1 0x40 ADD PUSH1 0x40 MSTORE DUP1 PUSH1 0x3 DUP2 MSTORE PUSH1 0x20 ADD PUSH32 0x626F620000000000000000000000000000000000000000000000000000000000 DUP2 MSTORE POP DUP2 MSTORE POP PUSH1 0x7 PUSH0 DUP3 ADD MLOAD DUP2 PUSH0 ADD SSTORE PUSH1 0x20 DUP3 ADD MLOAD DUP2 PUSH1 0x1 ADD SWAP1 DUP2 PUSH2 0x1B5 SWAP2 SWAP1 PUSH2 0x406 JUMP JUMPDEST POP POP POP CALLVALUE DUP1 ISZERO PUSH2 0x1C3 JUMPI PUSH0 PUSH0 REVERT JUMPDEST POP PUSH2 0x4D5 JUMP JUMPDEST PUSH0 DUP2 MLOAD SWAP1 POP SWAP2 SWAP1 POP JUMP JUMPDEST PUSH32 0x4E487B7100000000000000000000000000000000000000000000000000000000 PUSH0 MSTORE PUSH1 0x41 PUSH1 0x4 MSTORE PUSH1 0x24 PUSH0 REVERT JUMPDEST PUSH32 0x4E487B7100000000000000000000000000000000000000000000000000000000 PUSH0 MSTORE PUSH1 0x22 PUSH1 0x4 MSTORE PUSH1 0x24 PUSH0 REVERT JUMPDEST PUSH0 PUSH1 0x2 DUP3 DIV SWAP1 POP PUSH1 0x1 DUP3 AND DUP1 PUSH2 0x244 JUMPI PUSH1 0x7F DUP3 AND SWAP2 POP JUMPDEST PUSH1 0x20 DUP3 LT DUP2 SUB PUSH2 0x257 JUMPI PUSH2 0x256 PUSH2 0x200 JUMP JUMPDEST JUMPDEST POP SWAP2 SWAP1 POP JUMP JUMPDEST PUSH0 DUP2 SWAP1 POP DUP2 PUSH0 MSTORE PUSH1 0x20 PUSH0 KECCAK256 SWAP1 POP SWAP2 SWAP1 POP JUMP JUMPDEST PUSH0 PUSH1 0x20 PUSH1 0x1F DUP4 ADD DIV SWAP1 POP SWAP2 SWAP1 POP JUMP JUMPDEST PUSH0 DUP3 DUP3 SHL SWAP1 POP SWAP3 SWAP2 POP POP JUMP JUMPDEST PUSH0 PUSH1 0x8 DUP4 MUL PUSH2 0x2B9 PUSH32 0xFFFFFFFFFFFFFFFFFFFFFFFFFFFFFFFFFFFFFFFFFFFFFFFFFFFFFFFFFFFFFFFF DUP3 PUSH2 0x27E JUMP JUMPDEST PUSH2 0x2C3 DUP7 DUP4 PUSH2 0x27E JUMP JUMPDEST SWAP6 POP DUP1 NOT DUP5 AND SWAP4 POP DUP1 DUP7 AND DUP5 OR SWAP3 POP POP POP SWAP4 SWAP3 POP POP POP JUMP JUMPDEST PUSH0 DUP2 SWAP1 POP SWAP2 SWAP1 POP JUMP JUMPDEST PUSH0 DUP2 SWAP1 POP SWAP2 SWAP1 POP JUMP JUMPDEST PUSH0 PUSH2 0x307 PUSH2 0x302 PUSH2 0x2FD DUP5 PUSH2 0x2DB JUMP JUMPDEST PUSH2 0x2E4 JUMP JUMPDEST PUSH2 0x2DB JUMP JUMPDEST SWAP1 POP SWAP2 SWAP1 POP JUMP JUMPDEST PUSH0 DUP2 SWAP1 POP SWAP2 SWAP1 POP JUMP JUMPDEST PUSH2 0x320 DUP4 PUSH2 0x2ED JUMP JUMPDEST PUSH2 0x334 PUSH2 0x32C DUP3 PUSH2 0x30E JUMP JUMPDEST DUP5 DUP5 SLOAD PUSH2 0x28A JUMP JUMPDEST DUP3 SSTORE POP POP POP POP JUMP JUMPDEST PUSH0 PUSH0 SWAP1 POP SWAP1 JUMP JUMPDEST PUSH2 0x34B PUSH2 0x33C JUMP JUMPDEST PUSH2 0x356 DUP2 DUP5 DUP5 PUSH2 0x317 JUMP JUMPDEST POP POP POP JUMP JUMPDEST JUMPDEST DUP2 DUP2 LT ISZERO PUSH2 0x379 JUMPI PUSH2 0x36E PUSH0 DUP3 PUSH2 0x343 JUMP JUMPDEST PUSH1 0x1 DUP2 ADD SWAP1 POP PUSH2 0x35C JUMP JUMPDEST POP POP JUMP JUMPDEST PUSH1 0x1F DUP3 GT ISZERO PUSH2 0x3BE JUMPI PUSH2 0x38F DUP2 PUSH2 0x25D JUMP JUMPDEST PUSH2 0x398 DUP5 PUSH2 0x26F JUMP JUMPDEST DUP2 ADD PUSH1 0x20 DUP6 LT ISZERO PUSH2 0x3A7 JUMPI DUP2 SWAP1 POP JUMPDEST PUSH2 0x3BB PUSH2 0x3B3 DUP6 PUSH2 0x26F JUMP JUMPDEST DUP4 ADD DUP3 PUSH2 0x35B JUMP JUMPDEST POP POP JUMPDEST POP POP POP JUMP JUMPDEST PUSH0 DUP3 DUP3 SHR SWAP1 POP SWAP3 SWAP2 POP POP JUMP JUMPDEST PUSH0 PUSH2 0x3DE PUSH0 NOT DUP5 PUSH1 0x8 MUL PUSH2 0x3C3 JUMP JUMPDEST NOT DUP1 DUP4 AND SWAP2 POP POP SWAP3 SWAP2 POP POP JUMP JUMPDEST PUSH0 PUSH2 0x3F6 DUP4 DUP4 PUSH2 0x3CF JUMP JUMPDEST SWAP2 POP DUP3 PUSH1 0x2 MUL DUP3 OR SWAP1 POP SWAP3 SWAP2 POP POP JUMP JUMPDEST PUSH2 0x40F DUP3 PUSH2 0x1C9 JUMP JUMPDEST PUSH8 0xFFFFFFFFFFFFFFFF DUP2 GT ISZERO PUSH2 0x428 JUMPI PUSH2 0x427 PUSH2 0x1D3 JUMP JUMPDEST JUMPDEST PUSH2 0x432 DUP3 SLOAD PUSH2 0x22D JUMP JUMPDEST PUSH2 0x43D DUP3 DUP3 DUP6 PUSH2 0x37D JUMP JUMPDEST PUSH0 PUSH1 0x20 SWAP1 POP PUSH1 0x1F DUP4 GT PUSH1 0x1 DUP2 EQ PUSH2 0x46E JUMPI PUSH0 DUP5 ISZERO PUSH2 0x45C JUMPI DUP3 DUP8 ADD MLOAD SWAP1 POP JUMPDEST PUSH2 0x466 DUP6 DUP3 PUSH2 0x3EB JUMP JUMPDEST DUP7 SSTORE POP PUSH2 0x4CD JUMP JUMPDEST PUSH1 0x1F NOT DUP5 AND PUSH2 0x47C DUP7 PUSH2 0x25D JUMP JUMPDEST PUSH0 JUMPDEST DUP3 DUP2 LT ISZERO PUSH2 0x4A3 JUMPI DUP5 DUP10 ADD MLOAD DUP3 SSTORE PUSH1 0x1 DUP3 ADD SWAP2 POP PUSH1 0x20 DUP6 ADD SWAP5 POP PUSH1 0x20 DUP2 ADD SWAP1 POP PUSH2 0x47E JUMP JUMPDEST DUP7 DUP4 LT ISZERO PUSH2 0x4C0 JUMPI DUP5 DUP10 ADD MLOAD PUSH2 0x4BC PUSH1 0x1F DUP10 AND DUP3 PUSH2 0x3CF JUMP JUMPDEST DUP4 SSTORE POP JUMPDEST PUSH1 0x1 PUSH1 0x2 DUP9 MUL ADD DUP9 SSTORE POP POP POP JUMPDEST POP POP POP POP POP POP JUMP JUMPDEST PUSH2 0x53F DUP1 PUSH2 0x4E2 PUSH0 CODECOPY PUSH0 RETURN INVALID PUSH1 0x80 PUSH1 0x40 MSTORE CALLVALUE DUP1 ISZERO PUSH2 0xF JUMPI PUSH0 PUSH0 REVERT JUMPDEST POP PUSH1 0x4 CALLDATASIZE LT PUSH2 0x60 JUMPI PUSH0 CALLDATALOAD PUSH1 0xE0 SHR DUP1 PUSH4 0x20B2D87F EQ PUSH2 0x64 JUMPI DUP1 PUSH4 0x6057361D EQ PUSH2 0x83 JUMPI DUP1 PUSH4 0x6128F298 EQ PUSH2 0x9F JUMPI DUP1 PUSH4 0x66993D66 EQ PUSH2 0xBD JUMPI DUP1 PUSH4 0x77EC2B55 EQ PUSH2 0xDC JUMPI DUP1 PUSH4 0xA210CF3F EQ PUSH2 0xFB JUMPI JUMPDEST PUSH0 PUSH0 REVERT JUMPDEST PUSH2 0x6C PUSH2 0x11A JUMP JUMPDEST PUSH1 0x40 MLOAD PUSH2 0x7A SWAP3 SWAP2 SWAP1 PUSH2 0x40C JUMP JUMPDEST PUSH1 0x40 MLOAD DUP1 SWAP2 SUB SWAP1 RETURN JUMPDEST PUSH2 0x9D PUSH1 0x4 DUP1 CALLDATASIZE SUB DUP2 ADD SWAP1 PUSH2 0x98 SWAP2 SWAP1 PUSH2 0x468 JUMP JUMPDEST PUSH2 0x1B1 JUMP JUMPDEST STOP JUMPDEST PUSH2 0xA7 PUSH2 0x1BA JUMP JUMPDEST PUSH1 0x40 MLOAD PUSH2 0xB4 SWAP2 SWAP1 PUSH2 0x493 JUMP JUMPDEST PUSH1 0x40 MLOAD DUP1 SWAP2 SUB SWAP1 RETURN JUMPDEST PUSH2 0xC5 PUSH2 0x1BF JUMP JUMPDEST PUSH1 0x40 MLOAD PUSH2 0xD3 SWAP3 SWAP2 SWAP1 PUSH2 0x40C JUMP JUMPDEST PUSH1 0x40 MLOAD DUP1 SWAP2 SUB SWAP1 RETURN JUMPDEST PUSH2 0xE4 PUSH2 0x256 JUMP JUMPDEST PUSH1 0x40 MLOAD PUSH2 0xF2 SWAP3 SWAP2 SWAP1 PUSH2 0x40C JUMP JUMPDEST PUSH1 0x40 MLOAD DUP1 SWAP2 SUB SWAP1 RETURN JUMPDEST PUSH2 0x103 PUSH2 0x2ED JUMP JUMPDEST PUSH1 0x40 MLOAD PUSH2 0x111 SWAP3 SWAP2 SWAP1 PUSH2 0x40C JUMP JUMPDEST PUSH1 0x40 MLOAD DUP1 SWAP2 SUB SWAP1 RETURN JUMPDEST PUSH1 0x5 DUP1 PUSH0 ADD SLOAD SWAP1 DUP1 PUSH1 0x1 ADD DUP1 SLOAD PUSH2 0x130 SWAP1 PUSH2 0x4D9 JUMP JUMPDEST DUP1 PUSH1 0x1F ADD PUSH1 0x20 DUP1 SWAP2 DIV MUL PUSH1 0x20 ADD PUSH1 0x40 MLOAD SWAP1 DUP2 ADD PUSH1 0x40 MSTORE DUP1 SWAP3 SWAP2 SWAP1 DUP2 DUP2 MSTORE PUSH1 0x20 ADD DUP3 DUP1 SLOAD PUSH2 0x15C SWAP1 PUSH2 0x4D9 JUMP JUMPDEST DUP1 ISZERO PUSH2 0x1A7 JUMPI DUP1 PUSH1 0x1F LT PUSH2 0x17E JUMPI PUSH2 0x100 DUP1 DUP4 SLOAD DIV MUL DUP4 MSTORE SWAP2 PUSH1 0x20 ADD SWAP2 PUSH2 0x1A7 JUMP JUMPDEST DUP3 ADD SWAP2 SWAP1 PUSH0 MSTORE PUSH1 0x20 PUSH0 KECCAK256 SWAP1 JUMPDEST DUP2 SLOAD DUP2 MSTORE SWAP1 PUSH1 0x1 ADD SWAP1 PUSH1 0x20 ADD DUP1 DUP4 GT PUSH2 0x18A JUMPI DUP3 SWAP1 SUB PUSH1 0x1F AND DUP3 ADD SWAP2 JUMPDEST POP POP POP POP POP SWAP1 POP DUP3 JUMP JUMPDEST DUP1 PUSH0 DUP2 SWAP1 SSTORE POP POP JUMP JUMPDEST PUSH0 SLOAD DUP2 JUMP JUMPDEST PUSH1 0x3 DUP1 PUSH0 ADD SLOAD SWAP1 DUP1 PUSH1 0x1 ADD DUP1 SLOAD PUSH2 0x1D5 SWAP1 PUSH2 0x4D9 JUMP JUMPDEST DUP1 PUSH1 0x1F ADD PUSH1 0x20 DUP1 SWAP2 DIV MUL PUSH1 0x20 ADD PUSH1 0x40 MLOAD SWAP1 DUP2 ADD PUSH1 0x40 MSTORE DUP1 SWAP3 SWAP2 SWAP1 DUP2 DUP2 MSTORE PUSH1 0x20 ADD DUP3 DUP1 SLOAD PUSH2 0x201 SWAP1 PUSH2 0x4D9 JUMP JUMPDEST DUP1 ISZERO PUSH2 0x24C JUMPI DUP1 PUSH1 0x1F LT PUSH2 0x223 JUMPI PUSH2 0x100 DUP1 DUP4 SLOAD DIV MUL DUP4 MSTORE SWAP2 PUSH1 0x20 ADD SWAP2 PUSH2 0x24C JUMP JUMPDEST DUP3 ADD SWAP2 SWAP1 PUSH0 MSTORE PUSH1 0x20 PUSH0 KECCAK256 SWAP1 JUMPDEST DUP2 SLOAD DUP2 MSTORE SWAP1 PUSH1 0x1 ADD SWAP1 PUSH1 0x20 ADD DUP1 DUP4 GT PUSH2 0x22F JUMPI DUP3 SWAP1 SUB PUSH1 0x1F AND DUP3 ADD SWAP2 JUMPDEST POP POP POP POP POP SWAP1 POP DUP3 JUMP JUMPDEST PUSH1 0x1 DUP1 PUSH0 ADD SLOAD SWAP1 DUP1 PUSH1 0x1 ADD DUP1 SLOAD PUSH2 0x26C SWAP1 PUSH2 0x4D9 JUMP JUMPDEST DUP1 PUSH1 0x1F ADD PUSH1 0x20 DUP1 SWAP2 DIV MUL PUSH1 0x20 ADD PUSH1 0x40 MLOAD SWAP1 DUP2 ADD PUSH1 0x40 MSTORE DUP1 SWAP3 SWAP2 SWAP1 DUP2 DUP2 MSTORE PUSH1 0x20 ADD DUP3 DUP1 SLOAD PUSH2 0x298 SWAP1 PUSH2 0x4D9 JUMP JUMPDEST DUP1 ISZERO PUSH2 0x2E3 JUMPI DUP1 PUSH1 0x1F LT PUSH2 0x2BA JUMPI PUSH2 0x100 DUP1 DUP4 SLOAD DIV MUL DUP4 MSTORE SWAP2 PUSH1 0x20 ADD SWAP2 PUSH2 0x2E3 JUMP JUMPDEST DUP3 ADD SWAP2 SWAP1 PUSH0 MSTORE PUSH1 0x20 PUSH0 KECCAK256 SWAP1 JUMPDEST DUP2 SLOAD DUP2 MSTORE SWAP1 PUSH1 0x1 ADD SWAP1 PUSH1 0x20 ADD DUP1 DUP4 GT PUSH2 0x2C6 JUMPI DUP3 SWAP1 SUB PUSH1 0x1F AND DUP3 ADD SWAP2 JUMPDEST POP POP POP POP POP SWAP1 POP DUP3 JUMP JUMPDEST PUSH1 0x7 DUP1 PUSH0 ADD SLOAD SWAP1 DUP1 PUSH1 0x1 ADD DUP1 SLOAD PUSH2 0x303 SWAP1 PUSH2 0x4D9 JUMP JUMPDEST DUP1 PUSH1 0x1F ADD PUSH1 0x20 DUP1 SWAP2 DIV MUL PUSH1 0x20 ADD PUSH1 0x40 MLOAD SWAP1 DUP2 ADD PUSH1 0x40 MSTORE DUP1 SWAP3 SWAP2 SWAP1 DUP2 DUP2 MSTORE PUSH1 0x20 ADD DUP3 DUP1 SLOAD PUSH2 0x32F SWAP1 PUSH2 0x4D9 JUMP JUMPDEST DUP1 ISZERO PUSH2 0x37A JUMPI DUP1 PUSH1 0x1F LT PUSH2 0x351 JUMPI PUSH2 0x100 DUP1 DUP4 SLOAD DIV MUL DUP4 MSTORE SWAP2 PUSH1 0x20 ADD SWAP2 PUSH2 0x37A JUMP JUMPDEST DUP3 ADD SWAP2 SWAP1 PUSH0 MSTORE PUSH1 0x20 PUSH0 KECCAK256 SWAP1 JUMPDEST DUP2 SLOAD DUP2 MSTORE SWAP1 PUSH1 0x1 ADD SWAP1 PUSH1 0x20 ADD DUP1 DUP4 GT PUSH2 0x35D JUMPI DUP3 SWAP1 SUB PUSH1 0x1F AND DUP3 ADD SWAP2 JUMPDEST POP POP POP POP POP SWAP1 POP DUP3 JUMP JUMPDEST PUSH0 DUP2 SWAP1 POP SWAP2 SWAP1 POP JUMP JUMPDEST PUSH2 0x396 DUP2 PUSH2 0x384 JUMP JUMPDEST DUP3 MSTORE POP POP JUMP JUMPDEST PUSH0 DUP2 MLOAD SWAP1 POP SWAP2 SWAP1 POP JUMP JUMPDEST PUSH0 DUP3 DUP3 MSTORE PUSH1 0x20 DUP3 ADD SWAP1 POP SWAP3 SWAP2 POP POP JUMP JUMPDEST DUP3 DUP2 DUP4 MCOPY PUSH0 DUP4 DUP4 ADD MSTORE POP POP POP JUMP JUMPDEST PUSH0 PUSH1 0x1F NOT PUSH1 0x1F DUP4 ADD AND SWAP1 POP SWAP2 SWAP1 POP JUMP JUMPDEST PUSH0 PUSH2 0x3DE DUP3 PUSH2 0x39C JUMP JUMPDEST PUSH2 0x3E8 DUP2 DUP6 PUSH2 0x3A6 JUMP JUMPDEST SWAP4 POP PUSH2 0x3F8 DUP2 DUP6 PUSH1 0x20 DUP7 ADD PUSH2 0x3B6 JUMP JUMPDEST PUSH2 0x401 DUP2 PUSH2 0x3C4 JUMP JUMPDEST DUP5 ADD SWAP2 POP POP SWAP3 SWAP2 POP POP JUMP JUMPDEST PUSH0 PUSH1 0x40 DUP3 ADD SWAP1 POP PUSH2 0x41F PUSH0 DUP4 ADD DUP6 PUSH2 0x38D JUMP JUMPDEST DUP2 DUP2 SUB PUSH1 0x20 DUP4 ADD MSTORE PUSH2 0x431 DUP2 DUP5 PUSH2 0x3D4 JUMP JUMPDEST SWAP1 POP SWAP4 SWAP3 POP POP POP JUMP JUMPDEST PUSH0 PUSH0 REVERT JUMPDEST PUSH2 0x447 DUP2 PUSH2 0x384 JUMP JUMPDEST DUP2 EQ PUSH2 0x451 JUMPI PUSH0 PUSH0 REVERT JUMPDEST POP JUMP JUMPDEST PUSH0 DUP2 CALLDATALOAD SWAP1 POP PUSH2 0x462 DUP2 PUSH2 0x43E JUMP JUMPDEST SWAP3 SWAP2 POP POP JUMP JUMPDEST PUSH0 PUSH1 0x20 DUP3 DUP5 SUB SLT ISZERO PUSH2 0x47D JUMPI PUSH2 0x47C PUSH2 0x43A JUMP JUMPDEST JUMPDEST PUSH0 PUSH2 0x48A DUP5 DUP3 DUP6 ADD PUSH2 0x454 JUMP JUMPDEST SWAP2 POP POP SWAP3 SWAP2 POP POP JUMP JUMPDEST PUSH0 PUSH1 0x20 DUP3 ADD SWAP1 POP PUSH2 0x4A6 PUSH0 DUP4 ADD DUP5 PUSH2 0x38D JUMP JUMPDEST SWAP3 SWAP2 POP POP JUMP JUMPDEST PUSH32 0x4E487B7100000000000000000000000000000000000000000000000000000000 PUSH0 MSTORE PUSH1 0x22 PUSH1 0x4 MSTORE PUSH1 0x24 PUSH0 REVERT JUMPDEST PUSH0 PUSH1 0x2 DUP3 DIV SWAP1 POP PUSH1 0x1 DUP3 AND DUP1 PUSH2 0x4F0 JUMPI PUSH1 0x7F DUP3 AND SWAP2 POP JUMPDEST PUSH1 0x20 DUP3 LT DUP2 SUB PUSH2 0x503 JUMPI PUSH2 0x502 PUSH2 0x4AC JUMP JUMPDEST JUMPDEST POP SWAP2 SWAP1 POP JUMP INVALID LOG2 PUSH5 0x6970667358 0x22 SLT KECCAK256 BLOCKHASH PUSH10 0x84F85C7515FF34EE0E7E 0x2B PUSH11 0x3BE2B49DF7A74869390A9F RETURN SHL 0xE9 PUSH25 0x80F33F64736F6C634300081D00330000000000000000000000 "
				},
				"gasEstimates": {
					"creation": {
						"codeDepositCost": "268600",
						"executionCost": "infinite",
						"totalCost": "infinite"
					},
					"external": {
						"favouritenumber()": "2446",
						"person()": "infinite",
						"person2()": "infinite",
						"person3()": "infinite",
						"person4()": "infinite",
						"store(uint256)": "22514"
					}
				},
				"methodIdentifiers": {
					"favouritenumber()": "6128f298",
					"person()": "77ec2b55",
					"person2()": "66993d66",
					"person3()": "20b2d87f",
					"person4()": "a210cf3f",
					"store(uint256)": "6057361d"
				}
			},
			"storageLayout": {
				"storage": [
					{
						"astId": 8,
						"contract": "contracts/store2.sol:storefavnumber",
						"label": "favouritenumber",
						"offset": 0,
						"slot": "0",
						"type": "t_uint256"
					},
					{
						"astId": 15,
						"contract": "contracts/store2.sol:storefavnumber",
						"label": "person",
						"offset": 0,
						"slot": "1",
						"type": "t_struct(People)6_storage"
					},
					{
						"astId": 22,
						"contract": "contracts/store2.sol:storefavnumber",
						"label": "person2",
						"offset": 0,
						"slot": "3",
						"type": "t_struct(People)6_storage"
					},
					{
						"astId": 29,
						"contract": "contracts/store2.sol:storefavnumber",
						"label": "person3",
						"offset": 0,
						"slot": "5",
						"type": "t_struct(People)6_storage"
					},
					{
						"astId": 36,
						"contract": "contracts/store2.sol:storefavnumber",
						"label": "person4",
						"offset": 0,
						"slot": "7",
						"type": "t_struct(People)6_storage"
					}
				],
				"types": {
					"t_string_storage": {
						"encoding": "bytes",
						"label": "string",
						"numberOfBytes": "32"
					},
					"t_struct(People)6_storage": {
						"encoding": "inplace",
						"label": "struct People",
						"members": [
							{
								"astId": 3,
								"contract": "contracts/store2.sol:storefavnumber",
								"label": "favouritenumber",
								"offset": 0,
								"slot": "0",
								"type": "t_uint256"
							},
							{
								"astId": 5,
								"contract": "contracts/store2.sol:storefavnumber",
								"label": "name",
								"offset": 0,
								"slot": "1",
								"type": "t_string_storage"
							}
						],
						"numberOfBytes": "64"
					},
					"t_uint256": {
						"encoding": "inplace",
						"label": "uint256",
						"numberOfBytes": "32"
					}
				}
			},
			"userdoc": {
				"kind": "user",
				"methods": {},
				"version": 1
			}
		}
	}
}