{
	"contracts/purefun.sol": {
		"purefun": {
			"abi": [
				{
					"inputs": [],
					"name": "age",
					"outputs": [
						{
							"internalType": "uint256",
							"name": "",
							"type": "uint256"
						}
					],
					"stateMutability": "view",
					"type": "function"
				},
				{
					"inputs": [],
					"name": "getter",
					"outputs": [
						{
							"internalType": "uint256",
							"name": "",
							"type": "uint256"
						}
					],
					"stateMutability": "pure",
					"type": "function"
				}
			],
			"devdoc": {
				"kind": "dev",
				"methods": {},
				"version": 1
			},
			"evm": {
				"assembly": "    /* \"contracts/purefun.sol\":56:202  contract purefun{... */\n  mstore(0x40, 0x80)\n    /* \"contracts/purefun.sol\":96:98  10 */\n  0x0a\n    /* \"contracts/purefun.sol\":78:98  uint public age = 10 */\n  0x00\n  sstore\n    /* \"contracts/purefun.sol\":56:202  contract purefun{... */\n  callvalue\n  dup1\n  iszero\n  tag_1\n  jumpi\n  revert(0x00, 0x00)\ntag_1:\n  pop\n  dataSize(sub_0)\n  dup1\n  dataOffset(sub_0)\n  0x00\n  codecopy\n  0x00\n  return\nstop\n\nsub_0: assembly {\n        /* \"contracts/purefun.sol\":56:202  contract purefun{... */\n      mstore(0x40, 0x80)\n      callvalue\n      dup1\n      iszero\n      tag_1\n      jumpi\n      revert(0x00, 0x00)\n    tag_1:\n      pop\n      jumpi(tag_2, lt(calldatasize, 0x04))\n      shr(0xe0, calldataload(0x00))\n      dup1\n      0x262a9dff\n      eq\n      tag_3\n      jumpi\n      dup1\n      0x993a04b7\n      eq\n      tag_4\n      jumpi\n    tag_2:\n      revert(0x00, 0x00)\n        /* \"contracts/purefun.sol\":78:98  uint public age = 10 */\n    tag_3:\n      tag_5\n      tag_6\n      jump\t// in\n    tag_5:\n      mload(0x40)\n      tag_7\n      swap2\n      swap1\n      tag_8\n      jump\t// in\n    tag_7:\n      mload(0x40)\n      dup1\n      swap2\n      sub\n      swap1\n      return\n        /* \"contracts/purefun.sol\":104:200  function getter() public pure returns(uint) {... */\n    tag_4:\n      tag_9\n      tag_10\n      jump\t// in\n    tag_9:\n      mload(0x40)\n      tag_11\n      swap2\n      swap1\n      tag_8\n      jump\t// in\n    tag_11:\n      mload(0x40)\n      dup1\n      swap2\n      sub\n      swap1\n      return\n        /* \"contracts/purefun.sol\":78:98  uint public age = 10 */\n    tag_6:\n      sload(0x00)\n      dup2\n      jump\t// out\n        /* \"contracts/purefun.sol\":104:200  function getter() public pure returns(uint) {... */\n    tag_10:\n        /* \"contracts/purefun.sol\":142:146  uint */\n      0x00\n        /* \"contracts/purefun.sol\":158:167  uint roll */\n      0x00\n        /* \"contracts/purefun.sol\":170:172  23 */\n      0x17\n        /* \"contracts/purefun.sol\":158:172  uint roll = 23 */\n      swap1\n      pop\n        /* \"contracts/purefun.sol\":189:193  roll */\n      dup1\n        /* \"contracts/purefun.sol\":182:193  return roll */\n      swap2\n      pop\n      pop\n        /* \"contracts/purefun.sol\":104:200  function getter() public pure returns(uint) {... */\n      swap1\n      jump\t// out\n        /* \"#utility.yul\":7:84   */\n    tag_13:\n        /* \"#utility.yul\":44:51   */\n      0x00\n        /* \"#utility.yul\":73:78   */\n      dup2\n        /* \"#utility.yul\":62:78   */\n      swap1\n      pop\n        /* \"#utility.yul\":7:84   */\n      swap2\n      swap1\n      pop\n      jump\t// out\n        /* \"#utility.yul\":90:208   */\n    tag_14:\n        /* \"#utility.yul\":177:201   */\n      tag_18\n        /* \"#utility.yul\":195:200   */\n      dup2\n        /* \"#utility.yul\":177:201   */\n      tag_13\n      jump\t// in\n    tag_18:\n        /* \"#utility.yul\":172:175   */\n      dup3\n        /* \"#utility.yul\":165:202   */\n      mstore\n        /* \"#utility.yul\":90:208   */\n      pop\n      pop\n      jump\t// out\n        /* \"#utility.yul\":214:436   */\n    tag_8:\n        /* \"#utility.yul\":307:311   */\n      0x00\n        /* \"#utility.yul\":345:347   */\n      0x20\n        /* \"#utility.yul\":334:343   */\n      dup3\n        /* \"#utility.yul\":330:348   */\n      add\n        /* \"#utility.yul\":322:348   */\n      swap1\n      pop\n        /* \"#utility.yul\":358:429   */\n      tag_20\n        /* \"#utility.yul\":426:427   */\n      0x00\n        /* \"#utility.yul\":415:424   */\n      dup4\n        /* \"#utility.yul\":411:428   */\n      add\n        /* \"#utility.yul\":402:408   */\n      dup5\n        /* \"#utility.yul\":358:429   */\n      tag_14\n      jump\t// in\n    tag_20:\n        /* \"#utility.yul\":214:436   */\n      swap3\n      swap2\n      pop\n      pop\n      jump\t// out\n\n    auxdata: 0xa2646970667358221220304661a717abaff40f1f95c0efdb68805ee93e70c6179d46caf7905800145acc64736f6c634300081d0033\n}\n",
				"bytecode": {
					"linkReferences": {},
					"object": "6080604052600a5f553480156012575f5ffd5b5060dd80601e5f395ff3fe6080604052348015600e575f5ffd5b50600436106030575f3560e01c8063262a9dff146034578063993a04b714604e575b5f5ffd5b603a6068565b604051604591906090565b60405180910390f35b6054606d565b604051605f91906090565b60405180910390f35b5f5481565b5f5f601790508091505090565b5f819050919050565b608a81607a565b82525050565b5f60208201905060a15f8301846083565b9291505056fea2646970667358221220304661a717abaff40f1f95c0efdb68805ee93e70c6179d46caf7905800145acc64736f6c634300081d0033",
					"opcodes": "PUSH1 0x80 PUSH1 0x40 MSTORE PUSH1 0xA PUSH0 SSTORE CALLVALUE DUP1 ISZERO PUSH1 0x12 JUMPI PUSH0 PUSH0 REVERT JUMPDEST POP PUSH1 0xDD DUP1 PUSH1 0x1E PUSH0 CODECOPY PUSH0 RETURN INVALID PUSH1 0x80 PUSH1 0x40 MSTORE CALLVALUE DUP1 ISZERO PUSH1 0xE JUMPI PUSH0 PUSH0 REVERT JUMPDEST POP PUSH1 0x4 CALLDATASIZE LT PUSH1 0x30 JUMPI PUSH0 CALLDATALOAD PUSH1 0xE0 SHR DUP1 PUSH4 0x262A9DFF EQ PUSH1 0x34 JUMPI DUP1 PUSH4 0x993A04B7 EQ PUSH1 0x4E JUMPI JUMPDEST PUSH0 PUSH0 REVERT JUMPDEST PUSH1 0x3A PUSH1 0x68 JUMP JUMPDEST PUSH1 0x40 MLOAD PUSH1 0x45 SWAP2 SWAP1 PUSH1 0x90 JUMP JUMPDEST PUSH1 0x40 MLOAD DUP1 SWAP2 SUB SWAP1 RETURN JUMPDEST PUSH1 0x54 PUSH1 0x6D JUMP JUMPDEST PUSH1 0x40 MLOAD PUSH1 0x5F SWAP2 SWAP1 PUSH1 0x90 JUMP JUMPDEST PUSH1 0x40 MLOAD DUP1 SWAP2 SUB SWAP1 RETURN JUMPDEST PUSH0 SLOAD DUP2 JUMP JUMPDEST PUSH0 PUSH0 PUSH1 0x17 SWAP1 POP DUP1 SWAP2 POP POP SWAP1 JUMP JUMPDEST PUSH0 DUP2 SWAP1 POP SWAP2 SWAP1 POP JUMP JUMPDEST PUSH1 0x8A DUP2 PUSH1 0x7A JUMP JUMPDEST DUP3 MSTORE POP POP JUMP JUMPDEST PUSH0 PUSH1 0x20 DUP3 ADD SWAP1 POP PUSH1 0xA1 PUSH0 DUP4 ADD DUP5 PUSH1 0x83 JUMP JUMPDEST SWAP3 SWAP2 POP POP JUMP INVALID LOG2 PUSH5 0x6970667358 0x22 SLT KECCAK256 ADDRESS CHAINID PUSH2 0xA717 0xAB 0xAF DELEGATECALL 0xF 0x1F SWAP6 0xC0 0xEF 0xDB PUSH9 0x805EE93E70C6179D46 0xCA 0xF7 SWAP1 PC STOP EQ GAS 0xCC PUSH5 0x736F6C6343 STOP ADDMOD SAR STOP CALLER "
				},
				"gasEstimates": {
					"creation": {
						"codeDepositCost": "44200",
						"executionCost": "22196",
						"totalCost": "66396"
					},
					"external": {
						"age()": "2402",
						"getter()": "344"
					}
				},
				"methodIdentifiers": {
					"age()": "262a9dff",
					"getter()": "993a04b7"
				}
			},
			"storageLayout": {
				"storage": [
					{
						"astId": 4,
						"contract": "contracts/purefun.sol:purefun",
						"label": "age",
						"offset": 0,
						"slot": "0",
						"type": "t_uint256"
					}
				],
				"types": {
					"t_uint256": {
						"encoding": "inplace",
						"label": "uint256",
						"numberOfBytes": "32"
					}
				}
			},
			"userdoc": {
				"kind": "user",
				"methods": {},
				"version": 1
			}
		}
	}
}